{"abi":[{"type":"constructor","inputs":[{"name":"trustedForwarder_","type":"address","internalType":"address"}],"stateMutability":"nonpayable"},{"type":"function","name":"UPGRADE_INTERFACE_VERSION","inputs":[],"outputs":[{"name":"","type":"string","internalType":"string"}],"stateMutability":"view"},{"type":"function","name":"commit","inputs":[{"name":"invocationId","type":"uint256","internalType":"uint256"},{"name":"role","type":"uint8","internalType":"enum IExecutionCommitmentRegistry.Role"},{"name":"digest","type":"bytes32","internalType":"bytes32"}],"outputs":[],"stateMutability":"nonpayable"},{"type":"function","name":"commitDigest","inputs":[{"name":"role","type":"uint8","internalType":"enum IExecutionCommitmentRegistry.Role"},{"name":"node","type":"address","internalType":"address"},{"name":"outputHandle","type":"bytes32","internalType":"bytes32"},{"name":"salt","type":"bytes32","internalType":"bytes32"}],"outputs":[{"name":"","type":"bytes32","internalType":"bytes32"}],"stateMutability":"pure"},{"type":"function","name":"dispatch","inputs":[{"name":"invocationId","type":"uint256","internalType":"uint256"},{"name":"escrowId","type":"uint256","internalType":"uint256"},{"name":"agentId","type":"uint256","internalType":"uint256"},{"name":"executor","type":"address","internalType":"address"},{"name":"crossVerifier","type":"address","internalType":"address"},{"name":"commitDeadline","type":"uint64","internalType":"uint64"},{"name":"revealDeadline","type":"uint64","internalType":"uint64"}],"outputs":[],"stateMutability":"nonpayable"},{"type":"function","name":"dispatcher","inputs":[],"outputs":[{"name":"","type":"address","internalType":"address"}],"stateMutability":"view"},{"type":"function","name":"initialize","inputs":[{"name":"owner_","type":"address","internalType":"address"},{"name":"dispatcher_","type":"address","internalType":"address"}],"outputs":[],"stateMutability":"nonpayable"},{"type":"function","name":"invocation","inputs":[{"name":"invocationId","type":"uint256","internalType":"uint256"}],"outputs":[{"name":"","type":"tuple","internalType":"struct IExecutionCommitmentRegistry.Invocation","components":[{"name":"escrowId","type":"uint256","internalType":"uint256"},{"name":"agentId","type":"uint256","internalType":"uint256"},{"name":"executor","type":"address","internalType":"address"},{"name":"crossVerifier","type":"address","internalType":"address"},{"name":"dispatchedAt","type":"uint64","internalType":"uint64"},{"name":"commitDeadline","type":"uint64","internalType":"uint64"},{"name":"revealDeadline","type":"uint64","internalType":"uint64"},{"name":"executorCommit","type":"bytes32","internalType":"bytes32"},{"name":"verifierCommit","type":"bytes32","internalType":"bytes32"},{"name":"executorOutput","type":"bytes32","internalType":"bytes32"},{"name":"verifierOutput","type":"bytes32","internalType":"bytes32"},{"name":"executorRevealed","type":"bool","internalType":"bool"},{"name":"verifierRevealed","type":"bool","internalType":"bool"},{"name":"status","type":"uint8","internalType":"enum IExecutionCommitmentRegistry.Status"}]}],"stateMutability":"view"},{"type":"function","name":"isTrustedForwarder","inputs":[{"name":"forwarder","type":"address","internalType":"address"}],"outputs":[{"name":"","type":"bool","internalType":"bool"}],"stateMutability":"view"},{"type":"function","name":"markCommitTimeout","inputs":[{"name":"invocationId","type":"uint256","internalType":"uint256"}],"outputs":[],"stateMutability":"nonpayable"},{"type":"function","name":"markRevealTimeout","inputs":[{"name":"invocationId","type":"uint256","internalType":"uint256"}],"outputs":[],"stateMutability":"nonpayable"},{"type":"function","name":"owner","inputs":[],"outputs":[{"name":"","type":"address","internalType":"address"}],"stateMutability":"view"},{"type":"function","name":"proxiableUUID","inputs":[],"outputs":[{"name":"","type":"bytes32","internalType":"bytes32"}],"stateMutability":"view"},{"type":"function","name":"renounceOwnership","inputs":[],"outputs":[],"stateMutability":"nonpayable"},{"type":"function","name":"reveal","inputs":[{"name":"invocationId","type":"uint256","internalType":"uint256"},{"name":"role","type":"uint8","internalType":"enum IExecutionCommitmentRegistry.Role"},{"name":"outputHandle","type":"bytes32","internalType":"bytes32"},{"name":"salt","type":"bytes32","internalType":"bytes32"}],"outputs":[],"stateMutability":"nonpayable"},{"type":"function","name":"setDispatcher","inputs":[{"name":"dispatcher_","type":"address","internalType":"address"}],"outputs":[],"stateMutability":"nonpayable"},{"type":"function","name":"statusOf","inputs":[{"name":"invocationId","type":"uint256","internalType":"uint256"}],"outputs":[{"name":"","type":"uint8","internalType":"enum IExecutionCommitmentRegistry.Status"}],"stateMutability":"view"},{"type":"function","name":"transferOwnership","inputs":[{"name":"newOwner","type":"address","internalType":"address"}],"outputs":[],"stateMutability":"nonpayable"},{"type":"function","name":"trustedForwarder","inputs":[],"outputs":[{"name":"","type":"address","internalType":"address"}],"stateMutability":"view"},{"type":"function","name":"upgradeToAndCall","inputs":[{"name":"newImplementation","type":"address","internalType":"address"},{"name":"data","type":"bytes","internalType":"bytes"}],"outputs":[],"stateMutability":"payable"},{"type":"function","name":"verifiedOutput","inputs":[{"name":"invocationId","type":"uint256","internalType":"uint256"}],"outputs":[{"name":"","type":"bytes32","internalType":"bytes32"}],"stateMutability":"view"},{"type":"event","name":"Committed","inputs":[{"name":"invocationId","type":"uint256","indexed":true,"internalType":"uint256"},{"name":"role","type":"uint8","indexed":true,"internalType":"enum IExecutionCommitmentRegistry.Role"},{"name":"node","type":"address","indexed":true,"internalType":"address"},{"name":"digest","type":"bytes32","indexed":false,"internalType":"bytes32"}],"anonymous":false},{"type":"event","name":"Dispatched","inputs":[{"name":"invocationId","type":"uint256","indexed":true,"internalType":"uint256"},{"name":"agentId","type":"uint256","indexed":true,"internalType":"uint256"},{"name":"escrowId","type":"uint256","indexed":false,"internalType":"uint256"},{"name":"executor","type":"address","indexed":false,"internalType":"address"},{"name":"crossVerifier","type":"address","indexed":false,"internalType":"address"},{"name":"commitDeadline","type":"uint64","indexed":false,"internalType":"uint64"},{"name":"revealDeadline","type":"uint64","indexed":false,"internalType":"uint64"}],"anonymous":false},{"type":"event","name":"Escalated","inputs":[{"name":"invocationId","type":"uint256","indexed":true,"internalType":"uint256"},{"name":"reason","type":"string","indexed":false,"internalType":"string"}],"anonymous":false},{"type":"event","name":"Initialized","inputs":[{"name":"version","type":"uint64","indexed":false,"internalType":"uint64"}],"anonymous":false},{"type":"event","name":"OwnershipTransferred","inputs":[{"name":"previousOwner","type":"address","indexed":true,"internalType":"address"},{"name":"newOwner","type":"address","indexed":true,"internalType":"address"}],"anonymous":false},{"type":"event","name":"Revealed","inputs":[{"name":"invocationId","type":"uint256","indexed":true,"internalType":"uint256"},{"name":"role","type":"uint8","indexed":true,"internalType":"enum IExecutionCommitmentRegistry.Role"},{"name":"node","type":"address","indexed":true,"internalType":"address"},{"name":"outputHandle","type":"bytes32","indexed":false,"internalType":"bytes32"}],"anonymous":false},{"type":"event","name":"Upgraded","inputs":[{"name":"implementation","type":"address","indexed":true,"internalType":"address"}],"anonymous":false},{"type":"event","name":"Verified","inputs":[{"name":"invocationId","type":"uint256","indexed":true,"internalType":"uint256"},{"name":"outputHandle","type":"bytes32","indexed":false,"internalType":"bytes32"}],"anonymous":false},{"type":"error","name":"AddressEmptyCode","inputs":[{"name":"target","type":"address","internalType":"address"}]},{"type":"error","name":"AlreadyCommitted","inputs":[]},{"type":"error","name":"AlreadyDispatched","inputs":[]},{"type":"error","name":"AlreadyRevealed","inputs":[]},{"type":"error","name":"CommitDeadlineNotPassed","inputs":[]},{"type":"error","name":"CommitDeadlinePassed","inputs":[]},{"type":"error","name":"CommitMissing","inputs":[]},{"type":"error","name":"ERC1967InvalidImplementation","inputs":[{"name":"implementation","type":"address","internalType":"address"}]},{"type":"error","name":"ERC1967NonPayable","inputs":[]},{"type":"error","name":"FailedCall","inputs":[]},{"type":"error","name":"InvalidDeadlines","inputs":[]},{"type":"error","name":"InvalidInitialization","inputs":[]},{"type":"error","name":"NotDispatcher","inputs":[]},{"type":"error","name":"NotExpectedNode","inputs":[]},{"type":"error","name":"NotInitializing","inputs":[]},{"type":"error","name":"OwnableInvalidOwner","inputs":[{"name":"owner","type":"address","internalType":"address"}]},{"type":"error","name":"OwnableUnauthorizedAccount","inputs":[{"name":"account","type":"address","internalType":"address"}]},{"type":"error","name":"ReentrancyGuardReentrantCall","inputs":[]},{"type":"error","name":"RevealDeadlineNotPassed","inputs":[]},{"type":"error","name":"RevealDeadlinePassed","inputs":[]},{"type":"error","name":"RevealMismatch","inputs":[]},{"type":"error","name":"SelfVoting","inputs":[]},{"type":"error","name":"UUPSUnauthorizedCallContext","inputs":[]},{"type":"error","name":"UUPSUnsupportedProxiableUUID","inputs":[{"name":"slot","type":"bytes32","internalType":"bytes32"}]},{"type":"error","name":"UnknownInvocation","inputs":[]},{"type":"error","name":"WrongStatus","inputs":[]},{"type":"error","name":"ZeroAddress","inputs":[]}],"bytecode":{"object":"0x60c060405230608052348015610013575f5ffd5b506040516121b63803806121b6833981016040819052610032916100ff565b6001600160a01b03811660a05261004761004d565b5061012c565b7ff0c57e16840df040f15088dc2f81fe391c3923bec73e23a9662efc9c229c6a00805468010000000000000000900460ff161561009d5760405163f92ee8a960e01b815260040160405180910390fd5b80546001600160401b03908116146100fc5780546001600160401b0319166001600160401b0390811782556040519081527fc7f505b2f371ae2175ee4913f4499e1f2633a7b5936321eed1cdaeb6115181d29060200160405180910390a15b50565b5f6020828403121561010f575f5ffd5b81516001600160a01b0381168114610125575f5ffd5b9392505050565b60805160a05161204d6101695f395f81816101e501528181610266015261191701525f81816115320152818161155b0152611684015261204d5ff3fe60806040526004361061011b575f3560e01c80639ef5edbb1161009d578063c959c6c111610062578063c959c6c1146103c4578063cb7e9057146103e3578063de06267c146103f7578063f2fde38b14610416578063f77214a414610435575f5ffd5b80639ef5edbb146102da578063ace9f95f146102f9578063ad35efd414610318578063ad3cb1cc14610368578063ba22bd76146103a5575f5ffd5b8063572b6c05116100e3578063572b6c05146101c9578063706f889314610225578063715018a6146102445780637da0a877146102585780638da5cb5b1461029e575f5ffd5b8063069cd5da1461011f57806318e398d014610154578063485cc955146101755780634f1ef2861461019457806352d1902d146101a7575b5f5ffd5b34801561012a575f5ffd5b5061013e610139366004611aef565b610454565b60405161014b9190611b3a565b60405180910390f35b34801561015f575f5ffd5b5061017361016e366004611aef565b6105e1565b005b348015610180575f5ffd5b5061017361018f366004611c67565b610769565b6101736101a2366004611cac565b6108c4565b3480156101b2575f5ffd5b506101bb6108e3565b60405190815260200161014b565b3480156101d4575f5ffd5b506102156101e3366004611d6d565b7f00000000000000000000000000000000000000000000000000000000000000006001600160a01b0390811691161490565b604051901515815260200161014b565b348015610230575f5ffd5b5061017361023f366004611d9c565b6108fe565b34801561024f575f5ffd5b50610173610b6e565b348015610263575f5ffd5b507f00000000000000000000000000000000000000000000000000000000000000005b6040516001600160a01b03909116815260200161014b565b3480156102a9575f5ffd5b507f9016d09d72d40fdae2fd8ceac6b6234c7706214fd39c1cd1e609a0528c199300546001600160a01b0316610286565b3480156102e5575f5ffd5b506101736102f4366004611e16565b610b81565b348015610304575f5ffd5b506101bb610313366004611e49565b610e20565b348015610323575f5ffd5b5061035b610332366004611aef565b5f9081525f516020611fd85f395f51905f52602052604090206009015462010000900460ff1690565b60405161014b9190611e88565b348015610373575f5ffd5b50610398604051806040016040528060058152602001640352e302e360dc1b81525081565b60405161014b9190611e96565b3480156103b0575f5ffd5b506101736103bf366004611d6d565b610e36565b3480156103cf575f5ffd5b506101736103de366004611ecb565b610e96565b3480156103ee575f5ffd5b5061028661129f565b348015610402575f5ffd5b506101bb610411366004611aef565b6112be565b348015610421575f5ffd5b50610173610430366004611d6d565b611310565b348015610440575f5ffd5b5061017361044f366004611aef565b61134f565b6104c8604080516101c0810182525f80825260208201819052918101829052606081018290526080810182905260a0810182905260c0810182905260e0810182905261010081018290526101208101829052610140810182905261016081018290526101808101829052906101a082015290565b5f516020611f985f395f51905f525f8381526001918201602090815260409182902082516101c08101845281548152938101549184019190915260028101546001600160a01b039081169284019290925260038101549182166060840152600160a01b9091046001600160401b039081166080840152600482015480821660a0850152600160401b90041660c0830152600581015460e08301526006808201546101008085019190915260078301546101208501526008830154610140850152600983015460ff8082161515610160870152918104821615156101808601526101a085019262010000909104909116908111156105c7576105c7611b06565b60068111156105d8576105d8611b06565b90525092915050565b6105e96114bc565b5f8181525f516020611fd85f395f51905f5260205260408120600981015490919062010000900460ff16600681111561062457610624611b06565b036106425760405163e0b2e3db60e01b815260040160405180910390fd5b6001600982015462010000900460ff16600681111561066357610663611b06565b1415801561069057506002600982015462010000900460ff16600681111561068d5761068d611b06565b14155b156106ae57604051638e78f0cb60e01b815260040160405180910390fd5b60048101546001600160401b03164210156106dc57604051630340111160e51b815260040160405180910390fd5b6009810180546006919062ff0000191662010000830217905550817f3f6769fd87de54420212c7ef28bd75153e17be7bd467526876b7195c39ef3985604051610747906020808252600e908201526d18dbdb5b5a5d081d1a5b595bdd5d60921b604082015260600190565b60405180910390a25061076660015f516020611ff85f395f51905f5255565b50565b7ff0c57e16840df040f15088dc2f81fe391c3923bec73e23a9662efc9c229c6a008054600160401b810460ff1615906001600160401b03165f811580156107ad5750825b90505f826001600160401b031660011480156107c85750303b155b9050811580156107d6575080155b156107f45760405163f92ee8a960e01b815260040160405180910390fd5b845467ffffffffffffffff19166001178555831561081e57845460ff60401b1916600160401b1785555b6001600160a01b0386166108455760405163d92e233d60e01b815260040160405180910390fd5b61084e87611506565b5f516020611f985f395f51905f5280546001600160a01b0319166001600160a01b03881617905583156108bb57845460ff60401b19168555604051600181527fc7f505b2f371ae2175ee4913f4499e1f2633a7b5936321eed1cdaeb6115181d29060200160405180910390a15b50505050505050565b6108cc611527565b6108d5826115b5565b6108df82826115bd565b5050565b5f6108ec611679565b505f516020611fb85f395f51905f5290565b6109066114bc565b5f516020611f985f395f51905f5280546001600160a01b03166109276116c2565b6001600160a01b03161461094e5760405163957fb99f60e01b815260040160405180910390fd5b6001600160a01b038516158061096b57506001600160a01b038416155b156109895760405163d92e233d60e01b815260040160405180910390fd5b836001600160a01b0316856001600160a01b0316036109bb5760405163b003db7560e01b815260040160405180910390fd5b42836001600160401b0316116109e457604051630a716d6d60e41b815260040160405180910390fd5b826001600160401b0316826001600160401b031611610a1657604051630a716d6d60e41b815260040160405180910390fd5b5f888152600182016020526040812090600982015462010000900460ff166006811115610a4557610a45611b06565b14610a635760405163180a857f60e11b815260040160405180910390fd5b878155600181018790556002810180546001600160a01b0319166001600160a01b038881169182179092556003830180549288166001600160e01b03199093168317600160a01b426001600160401b0390811691909102919091179091556004840180548883166fffffffffffffffffffffffffffffffff199091168117600160401b938916938402179091556009850180546201000062ff000019909116179055604080518d815260208101949094528381019490945260608301526080820152905188918b917fda065e33f8c354300946a8a87f6141c5aaeb38453e4f0c7188fde18e50fe8a539160a0908290030190a350506108bb60015f516020611ff85f395f51905f5255565b610b766116d0565b610b7f5f61174d565b565b610b896114bc565b5f8381525f516020611fd85f395f51905f526020526040812060098101545f516020611f985f395f51905f52929062010000900460ff166006811115610bd157610bd1611b06565b03610bef5760405163e0b2e3db60e01b815260040160405180910390fd5b6001600982015462010000900460ff166006811115610c1057610c10611b06565b14158015610c3d57506002600982015462010000900460ff166006811115610c3a57610c3a611b06565b14155b15610c5b57604051638e78f0cb60e01b815260040160405180910390fd5b60048101546001600160401b03164210610c885760405163275eb69d60e01b815260040160405180910390fd5b5f610c916116c2565b90505f856001811115610ca657610ca6611b06565b03610d0a5760028201546001600160a01b03828116911614610cdb5760405163f9a5ccfb60e01b815260040160405180910390fd5b600582015415610cfe576040516317fd8aab60e31b815260040160405180910390fd5b60058201849055610d65565b60038201546001600160a01b03828116911614610d3a5760405163f9a5ccfb60e01b815260040160405180910390fd5b600682015415610d5d576040516317fd8aab60e31b815260040160405180910390fd5b600682018490555b600582015415801590610d7b5750600682015415155b15610d985760098201805462ff0000191662030000179055610dac565b60098201805462ff00001916620200001790555b806001600160a01b0316856001811115610dc857610dc8611b06565b877f4aef7c29500a0201675f2636494ca4bc3ca4135280e84ef838d8ca585dcd6c3287604051610dfa91815260200190565b60405180910390a4505050610e1b60015f516020611ff85f395f51905f5255565b505050565b5f610e2d858585856117bd565b95945050505050565b610e3e6116d0565b6001600160a01b038116610e655760405163d92e233d60e01b815260040160405180910390fd5b805f516020611f985f395f51905f525b80546001600160a01b0319166001600160a01b039290921691909117905550565b610e9e6114bc565b5f8481525f516020611fd85f395f51905f526020526040812060098101545f516020611f985f395f51905f52929062010000900460ff166006811115610ee657610ee6611b06565b03610f045760405163e0b2e3db60e01b815260040160405180910390fd5b6003600982015462010000900460ff166006811115610f2557610f25611b06565b14158015610f5257506004600982015462010000900460ff166006811115610f4f57610f4f611b06565b14155b15610f7057604051638e78f0cb60e01b815260040160405180910390fd5b6004810154600160401b90046001600160401b03164210610fa457604051637357176d60e01b815260040160405180910390fd5b5f610fad6116c2565b90505f80876001811115610fc357610fc3611b06565b036110295760028301546001600160a01b03838116911614610ff85760405163f9a5ccfb60e01b815260040160405180910390fd5b600983015460ff161561101e5760405163a89ac15160e01b815260040160405180910390fd5b50600582015461108b565b60038301546001600160a01b038381169116146110595760405163f9a5ccfb60e01b815260040160405180910390fd5b6009830154610100900460ff16156110845760405163a89ac15160e01b815260040160405180910390fd5b5060068201545b806110a95760405163a48e826160e01b815260040160405180910390fd5b5f6110b6888489896117bd565b90508181146110d85760405163f0f96d3560e01b815260040160405180910390fd5b5f8860018111156110eb576110eb611b06565b0361110b576007840187905560098401805460ff19166001179055611124565b6008840187905560098401805461ff0019166101001790555b826001600160a01b031688600181111561114057611140611b06565b8a7fbedb8dc5e47eb2518da205ab2986676c36ce0eeebf48a4a96bc94bf3dd307d768a60405161117291815260200190565b60405180910390a4600984015460ff16801561119757506009840154610100900460ff165b1561126a5783600801548460070154036111fe5760098401805462ff0000191662050000179055600784015460405190815289907f6ad569c43a70a127a638b7fdf29bb0fe31f60e0e072bdd13bd98b3fdbd690ba3906020015b60405180910390a261127e565b6009840180546006919062ff0000191662010000830217905550887f3f6769fd87de54420212c7ef28bd75153e17be7bd467526876b7195c39ef39856040516111f1906020808252600f908201526e0deeae8e0eae840dad2e6dac2e8c6d608b1b604082015260600190565b60098401805462ff00001916620400001790555b505050505061129960015f516020611ff85f395f51905f5255565b50505050565b5f5f516020611f985f395f51905f525b546001600160a01b0316919050565b5f8181525f516020611fd85f395f51905f5260205260408120600981015460059062010000900460ff1660068111156112f9576112f9611b06565b1461130657505f92915050565b6007015492915050565b6113186116d0565b6001600160a01b03811661134657604051631e4fbdf760e01b81525f60048201526024015b60405180910390fd5b6107668161174d565b6113576114bc565b5f8181525f516020611fd85f395f51905f5260205260408120600981015490919062010000900460ff16600681111561139257611392611b06565b036113b05760405163e0b2e3db60e01b815260040160405180910390fd5b6003600982015462010000900460ff1660068111156113d1576113d1611b06565b141580156113fe57506004600982015462010000900460ff1660068111156113fb576113fb611b06565b14155b1561141c57604051638e78f0cb60e01b815260040160405180910390fd5b6004810154600160401b90046001600160401b031642101561145157604051632e29776360e21b815260040160405180910390fd5b6009810180546006919062ff0000191662010000830217905550817f3f6769fd87de54420212c7ef28bd75153e17be7bd467526876b7195c39ef3985604051610747906020808252600e908201526d1c995d99585b081d1a5b595bdd5d60921b604082015260600190565b5f516020611ff85f395f51905f528054600119016114ed57604051633ee5aeb560e01b815260040160405180910390fd5b60029055565b60015f516020611ff85f395f51905f5255565b61150e61182d565b61151781611876565b61151f611887565b61076661188f565b306001600160a01b037f000000000000000000000000000000000000000000000000000000000000000016148061159757507f00000000000000000000000000000000000000000000000000000000000000006001600160a01b031661158b61189f565b6001600160a01b031614155b15610b7f5760405163703e46dd60e11b815260040160405180910390fd5b6107666116d0565b816001600160a01b03166352d1902d6040518163ffffffff1660e01b8152600401602060405180830381865afa925050508015611617575060408051601f3d908101601f1916820190925261161491810190611eee565b60015b61163f57604051634c9c8ce360e01b81526001600160a01b038316600482015260240161133d565b5f516020611fb85f395f51905f52811461166f57604051632a87526960e21b81526004810182905260240161133d565b610e1b83836118b3565b306001600160a01b037f00000000000000000000000000000000000000000000000000000000000000001614610b7f5760405163703e46dd60e11b815260040160405180910390fd5b5f6116cb611908565b905090565b6116d86116c2565b6001600160a01b03166117127f9016d09d72d40fdae2fd8ceac6b6234c7706214fd39c1cd1e609a0528c199300546001600160a01b031690565b6001600160a01b031614610b7f576117286116c2565b60405163118cdaa760e01b81526001600160a01b03909116600482015260240161133d565b7f9016d09d72d40fdae2fd8ceac6b6234c7706214fd39c1cd1e609a0528c19930080546001600160a01b031981166001600160a01b03848116918217845560405192169182907f8be0079c531659141344cd1fd0a4f28419497f9722a3daafe3b4186f6b6457e0905f90a3505050565b5f8460018111156117d0576117d0611b06565b60405160f89190911b6001600160f81b0319166020820152606085901b6001600160601b03191660218201526035810184905260558101839052607501604051602081830303815290604052805190602001209050949350505050565b7ff0c57e16840df040f15088dc2f81fe391c3923bec73e23a9662efc9c229c6a0054600160401b900460ff16610b7f57604051631afcd79f60e31b815260040160405180910390fd5b61187e61182d565b6107668161197b565b610b7f61182d565b61189761182d565b610b7f611983565b5f5f516020611fb85f395f51905f526112af565b6118bc8261198b565b6040516001600160a01b038316907fbc7cd75a20ee27fd9adebab32041f755214dbc6bffa90cc0225b39da2e5c2d3b905f90a280511561190057610e1b82826119d4565b6108df611a48565b5f366014336001600160a01b037f0000000000000000000000000000000000000000000000000000000000000000161480156119445750808210155b15611973575f366119558385611f05565b611960928290611f24565b61196991611f4b565b60601c9250505090565b339250505090565b61131861182d565b6114f361182d565b806001600160a01b03163b5f036119c057604051634c9c8ce360e01b81526001600160a01b038216600482015260240161133d565b805f516020611fb85f395f51905f52610e75565b60605f5f846001600160a01b0316846040516119f09190611f81565b5f60405180830381855af49150503d805f8114611a28576040519150601f19603f3d011682016040523d82523d5f602084013e611a2d565b606091505b5091509150611a3d858383611a67565b925050505b92915050565b3415610b7f5760405163b398979f60e01b815260040160405180910390fd5b606082611a7c57611a7782611ac6565b611abf565b8151158015611a9357506001600160a01b0384163b155b15611abc57604051639996b31560e01b81526001600160a01b038516600482015260240161133d565b50805b9392505050565b805115611ad65780518082602001fd5b60405163d6bda27560e01b815260040160405180910390fd5b5f60208284031215611aff575f5ffd5b5035919050565b634e487b7160e01b5f52602160045260245ffd5b60078110611b3657634e487b7160e01b5f52602160045260245ffd5b9052565b5f6101c08201905082518252602083015160208301526040830151611b6a60408401826001600160a01b03169052565b506060830151611b8560608401826001600160a01b03169052565b506080830151611ba060808401826001600160401b03169052565b5060a0830151611bbb60a08401826001600160401b03169052565b5060c0830151611bd660c08401826001600160401b03169052565b5060e083015160e0830152610100830151610100830152610120830151610120830152610140830151610140830152610160830151611c1a61016084018215159052565b50610180830151611c3061018084018215159052565b506101a0830151611c456101a0840182611b1a565b5092915050565b80356001600160a01b0381168114611c62575f5ffd5b919050565b5f5f60408385031215611c78575f5ffd5b611c8183611c4c565b9150611c8f60208401611c4c565b90509250929050565b634e487b7160e01b5f52604160045260245ffd5b5f5f60408385031215611cbd575f5ffd5b611cc683611c4c565b915060208301356001600160401b03811115611ce0575f5ffd5b8301601f81018513611cf0575f5ffd5b80356001600160401b03811115611d0957611d09611c98565b604051601f8201601f19908116603f011681016001600160401b0381118282101715611d3757611d37611c98565b604052818152828201602001871015611d4e575f5ffd5b816020840160208301375f602083830101528093505050509250929050565b5f60208284031215611d7d575f5ffd5b611abf82611c4c565b80356001600160401b0381168114611c62575f5ffd5b5f5f5f5f5f5f5f60e0888a031215611db2575f5ffd5b873596506020880135955060408801359450611dd060608901611c4c565b9350611dde60808901611c4c565b9250611dec60a08901611d86565b9150611dfa60c08901611d86565b905092959891949750929550565b803560028110611c62575f5ffd5b5f5f5f60608486031215611e28575f5ffd5b83359250611e3860208501611e08565b929592945050506040919091013590565b5f5f5f5f60808587031215611e5c575f5ffd5b611e6585611e08565b9350611e7360208601611c4c565b93969395505050506040820135916060013590565b60208101611a428284611b1a565b602081525f82518060208401528060208501604085015e5f604082850101526040601f19601f83011684010191505092915050565b5f5f5f5f60808587031215611ede575f5ffd5b84359350611e7360208601611e08565b5f60208284031215611efe575f5ffd5b5051919050565b81810381811115611a4257634e487b7160e01b5f52601160045260245ffd5b5f5f85851115611f32575f5ffd5b83861115611f3e575f5ffd5b5050820193919092039150565b80356001600160601b03198116906014841015611c45576001600160601b031960149490940360031b84901b1690921692915050565b5f82518060208501845e5f92019182525091905056fec7e4d8a3f5b9e1c0d2f4b6a8c0e2d4f6a8c0e2d4f6a8c0e2d4f6a8c0e2c0fc00360894a13ba1a3210667c828492db98dca3e2076cc3735a920a3ca505d382bbcc7e4d8a3f5b9e1c0d2f4b6a8c0e2d4f6a8c0e2d4f6a8c0e2d4f6a8c0e2c0fc019b779b17422d0df92223018b32b4d1fa46e071723d6817e2486d003becc55f00a2646970667358221220e848ae7c2d37d8c6ec1d6d59563700bafaab471d3f834e6718d26a629d1e57cd64736f6c634300081c0033","linkReferences":{}},"methodIdentifiers":{"UPGRADE_INTERFACE_VERSION()":"ad3cb1cc","commit(uint256,uint8,bytes32)":"9ef5edbb","commitDigest(uint8,address,bytes32,bytes32)":"ace9f95f","dispatch(uint256,uint256,uint256,address,address,uint64,uint64)":"706f8893","dispatcher()":"cb7e9057","initialize(address,address)":"485cc955","invocation(uint256)":"069cd5da","isTrustedForwarder(address)":"572b6c05","markCommitTimeout(uint256)":"18e398d0","markRevealTimeout(uint256)":"f77214a4","owner()":"8da5cb5b","proxiableUUID()":"52d1902d","renounceOwnership()":"715018a6","reveal(uint256,uint8,bytes32,bytes32)":"c959c6c1","setDispatcher(address)":"ba22bd76","statusOf(uint256)":"ad35efd4","transferOwnership(address)":"f2fde38b","trustedForwarder()":"7da0a877","upgradeToAndCall(address,bytes)":"4f1ef286","verifiedOutput(uint256)":"de06267c"},"storageLayout":{"storage":[],"types":{}},"id":6}