{"abi":[{"type":"constructor","inputs":[{"name":"_gknTokenAddress","type":"address","internalType":"address"},{"name":"_iclServiceAddress","type":"address","internalType":"address"}],"stateMutability":"nonpayable"},{"type":"function","name":"TIER0_MIN_STAKE","inputs":[],"outputs":[{"name":"","type":"uint256","internalType":"uint256"}],"stateMutability":"view"},{"type":"function","name":"TIER1_MIN_STAKE","inputs":[],"outputs":[{"name":"","type":"uint256","internalType":"uint256"}],"stateMutability":"view"},{"type":"function","name":"TIER2_MIN_STAKE","inputs":[],"outputs":[{"name":"","type":"uint256","internalType":"uint256"}],"stateMutability":"view"},{"type":"function","name":"activeNodes","inputs":[{"name":"","type":"address","internalType":"address"}],"outputs":[{"name":"","type":"bool","internalType":"bool"}],"stateMutability":"view"},{"type":"function","name":"deactivate","inputs":[],"outputs":[],"stateMutability":"nonpayable"},{"type":"function","name":"getActiveNodes","inputs":[{"name":"minTier","type":"uint8","internalType":"uint8"},{"name":"zdrRequired","type":"bool","internalType":"bool"}],"outputs":[{"name":"","type":"address[]","internalType":"address[]"}],"stateMutability":"view"},{"type":"function","name":"getNodeMetrics","inputs":[{"name":"node","type":"address","internalType":"address"}],"outputs":[{"name":"tasksCompleted","type":"uint256","internalType":"uint256"},{"name":"tasksAccepted","type":"uint256","internalType":"uint256"},{"name":"tasksRejected","type":"uint256","internalType":"uint256"},{"name":"reputationScore","type":"uint256","internalType":"uint256"},{"name":"totalSlashAmount","type":"uint256","internalType":"uint256"},{"name":"lastHeartbeat","type":"uint256","internalType":"uint256"}],"stateMutability":"view"},{"type":"function","name":"getRegisteredNodesCount","inputs":[],"outputs":[{"name":"","type":"uint256","internalType":"uint256"}],"stateMutability":"view"},{"type":"function","name":"gknTokenAddress","inputs":[],"outputs":[{"name":"","type":"address","internalType":"address"}],"stateMutability":"view"},{"type":"function","name":"iclServiceAddress","inputs":[],"outputs":[{"name":"","type":"address","internalType":"address"}],"stateMutability":"view"},{"type":"function","name":"isActive","inputs":[{"name":"node","type":"address","internalType":"address"}],"outputs":[{"name":"","type":"bool","internalType":"bool"}],"stateMutability":"view"},{"type":"function","name":"nodes","inputs":[{"name":"","type":"address","internalType":"address"}],"outputs":[{"name":"operatorAddress","type":"address","internalType":"address"},{"name":"ipfsCID","type":"string","internalType":"string"},{"name":"location","type":"string","internalType":"string"},{"name":"zdrCompliant","type":"bool","internalType":"bool"},{"name":"jurisdiction","type":"string","internalType":"string"},{"name":"minStake","type":"uint256","internalType":"uint256"},{"name":"registeredAt","type":"uint256","internalType":"uint256"},{"name":"lastHeartbeat","type":"uint256","internalType":"uint256"},{"name":"tasksCompleted","type":"uint256","internalType":"uint256"},{"name":"tasksAccepted","type":"uint256","internalType":"uint256"},{"name":"tasksRejected","type":"uint256","internalType":"uint256"},{"name":"totalSlashAmount","type":"uint256","internalType":"uint256"},{"name":"reputationScore","type":"uint256","internalType":"uint256"},{"name":"active","type":"bool","internalType":"bool"}],"stateMutability":"view"},{"type":"function","name":"owner","inputs":[],"outputs":[{"name":"","type":"address","internalType":"address"}],"stateMutability":"view"},{"type":"function","name":"reactivate","inputs":[],"outputs":[],"stateMutability":"nonpayable"},{"type":"function","name":"recordTaskResult","inputs":[{"name":"node","type":"address","internalType":"address"},{"name":"accepted","type":"bool","internalType":"bool"}],"outputs":[],"stateMutability":"nonpayable"},{"type":"function","name":"register","inputs":[{"name":"ipfsCID","type":"string","internalType":"string"},{"name":"modelTiers","type":"uint8[]","internalType":"uint8[]"},{"name":"location","type":"string","internalType":"string"},{"name":"zdrCompliant","type":"bool","internalType":"bool"},{"name":"jurisdiction","type":"string","internalType":"string"}],"outputs":[],"stateMutability":"payable"},{"type":"function","name":"registeredNodes","inputs":[{"name":"","type":"uint256","internalType":"uint256"}],"outputs":[{"name":"","type":"address","internalType":"address"}],"stateMutability":"view"},{"type":"function","name":"renounceOwnership","inputs":[],"outputs":[],"stateMutability":"nonpayable"},{"type":"function","name":"setTaskResultReporter","inputs":[{"name":"reporter","type":"address","internalType":"address"},{"name":"allowed","type":"bool","internalType":"bool"}],"outputs":[],"stateMutability":"nonpayable"},{"type":"function","name":"slash","inputs":[{"name":"node","type":"address","internalType":"address"},{"name":"amount","type":"uint256","internalType":"uint256"},{"name":"reason","type":"string","internalType":"string"}],"outputs":[],"stateMutability":"nonpayable"},{"type":"function","name":"slashHistory","inputs":[{"name":"","type":"address","internalType":"address"},{"name":"","type":"uint256","internalType":"uint256"}],"outputs":[{"name":"amount","type":"uint256","internalType":"uint256"},{"name":"reason","type":"string","internalType":"string"},{"name":"timestamp","type":"uint256","internalType":"uint256"}],"stateMutability":"view"},{"type":"function","name":"stakes","inputs":[{"name":"","type":"address","internalType":"address"}],"outputs":[{"name":"","type":"uint256","internalType":"uint256"}],"stateMutability":"view"},{"type":"function","name":"taskResultReporters","inputs":[{"name":"","type":"address","internalType":"address"}],"outputs":[{"name":"","type":"bool","internalType":"bool"}],"stateMutability":"view"},{"type":"function","name":"transferOwnership","inputs":[{"name":"newOwner","type":"address","internalType":"address"}],"outputs":[],"stateMutability":"nonpayable"},{"type":"function","name":"updateHeartbeat","inputs":[],"outputs":[],"stateMutability":"nonpayable"},{"type":"function","name":"updateReputation","inputs":[{"name":"node","type":"address","internalType":"address"},{"name":"score","type":"uint256","internalType":"uint256"}],"outputs":[],"stateMutability":"nonpayable"},{"type":"event","name":"HeartbeatReceived","inputs":[{"name":"operator","type":"address","indexed":true,"internalType":"address"},{"name":"timestamp","type":"uint256","indexed":false,"internalType":"uint256"}],"anonymous":false},{"type":"event","name":"NodeRegistered","inputs":[{"name":"operator","type":"address","indexed":true,"internalType":"address"},{"name":"modelTiers","type":"uint8[]","indexed":false,"internalType":"uint8[]"},{"name":"location","type":"string","indexed":false,"internalType":"string"},{"name":"zdrCompliant","type":"bool","indexed":false,"internalType":"bool"}],"anonymous":false},{"type":"event","name":"NodeSlashed","inputs":[{"name":"operator","type":"address","indexed":true,"internalType":"address"},{"name":"amount","type":"uint256","indexed":false,"internalType":"uint256"},{"name":"reason","type":"string","indexed":false,"internalType":"string"},{"name":"newStake","type":"uint256","indexed":false,"internalType":"uint256"}],"anonymous":false},{"type":"event","name":"OwnershipTransferred","inputs":[{"name":"previousOwner","type":"address","indexed":true,"internalType":"address"},{"name":"newOwner","type":"address","indexed":true,"internalType":"address"}],"anonymous":false},{"type":"event","name":"ReputationUpdated","inputs":[{"name":"operator","type":"address","indexed":true,"internalType":"address"},{"name":"newScore","type":"uint256","indexed":false,"internalType":"uint256"}],"anonymous":false},{"type":"event","name":"TaskResultReporterUpdated","inputs":[{"name":"reporter","type":"address","indexed":true,"internalType":"address"},{"name":"allowed","type":"bool","indexed":false,"internalType":"bool"}],"anonymous":false},{"type":"error","name":"OwnableInvalidOwner","inputs":[{"name":"owner","type":"address","internalType":"address"}]},{"type":"error","name":"OwnableUnauthorizedAccount","inputs":[{"name":"account","type":"address","internalType":"address"}]},{"type":"error","name":"ReentrancyGuardReentrantCall","inputs":[]}],"bytecode":{"object":"0x60803461018e57601f611dc338819003918201601f19168301916001600160401b0383118484101761019257808492604094855283398101031261018e57610052602061004b836101a6565b92016101a6565b331561017b575f8054336001600160a01b0319821681178355604051949290916001600160a01b0316907f8be0079c531659141344cd1fd0a4f28419497f9722a3daafe3b4186f6b6457e09080a3600180556001600160a01b031691821561013957506001600160a01b03169081156100f45760018060a01b0319600954161760095560018060a01b03196008541617600855604051611c0890816101bb8239f35b60405162461bcd60e51b815260206004820152601b60248201527f496e76616c69642049434c2073657276696365206164647265737300000000006044820152606490fd5b62461bcd60e51b815260206004820152601960248201527f496e76616c696420474e4b20746f6b656e2061646472657373000000000000006044820152606490fd5b631e4fbdf760e01b5f525f60045260245ffd5b5f80fd5b634e487b7160e01b5f52604160045260245ffd5b51906001600160a01b038216820361018e5756fe6080806040526004361015610012575f80fd5b5f3560e01c90816316934fc41461170457508063189a5a17146115e25780632135a87214611570578063450a889a146114af578063486033a9146114875780634d087bb11461135d57806351b42b00146112c95780635a5de03f1461128c5780636002c8e81461127057806361ca89fa1461122e57806366e6156714611188578063678b3ee214610e5257806367f9ade314610e2a578063715018a614610dd357806386709d9f14610db75780638da5cb5b14610d905780638e58021314610d115780639f8a13d7146102d0578063ce43306614610b9d578063ceb6c803146103b3578063d18611d61461030d578063df6dd670146102d0578063ed181b5b146102b4578063f2fde38b1461022f578063f5c91a081461015b5763fd74c7761461013a575f80fd5b34610157575f366003190112610157576020600554604051908152f35b5f80fd5b3461015757604036600319011261015757610174611738565b6024359061018d60018060a01b0360085416331461198b565b60018060a01b031690815f5260026020526101b0600760405f2001541515611949565b61271081116101f65760207ffc577563f1b9a0461e24abef1e1fcc0d33d3d881f20b5df6dda59de4aae2c82191835f526002825280600d60405f200155604051908152a2005b60405162461bcd60e51b81526020600482015260116024820152700a6c6dee4ca40caf0c6cacac8e640dac2f607b1b6044820152606490fd5b3461015757602036600319011261015757610248611738565b610250611a6b565b6001600160a01b031680156102a1575f80546001600160a01b03198116831782556001600160a01b0316907f8be0079c531659141344cd1fd0a4f28419497f9722a3daafe3b4186f6b6457e09080a3005b631e4fbdf760e01b5f525f60045260245ffd5b34610157575f3660031901126101575760206040516113888152f35b34610157576020366003190112610157576001600160a01b036102f1611738565b165f526006602052602060ff60405f2054166040519015158152f35b34610157575f36600319011261015757335f52600260205260405f2061033860078201541515611949565b335f52600360205260405f205460068201541161037857600e01600160ff19825416179055335f52600660205260405f20600160ff198254161790555f80f35b60405162461bcd60e51b81526020600482015260136024820152725374616b652062656c6f77206d696e696d756d60681b6044820152606490fd5b60a0366003190112610157576004356001600160401b038111610157576103de9036906004016118a6565b6024356001600160401b0381116101575736602382011215610157578060040135916001600160401b0383116101575760248201923660248260051b85010111610157576044356001600160401b038111610157576104419036906004016118a6565b6064359586151594909290858803610157576084356001600160401b038111610157576104729036906004016118a6565b9990600260015414610b8e576002600155335f526002602052600760405f200154610b49578215610b10578415610ad7578a15610a9a578615610a56575f9a5f5b8881101561052c576104cc60248260051b8d0101611a5d565b60ff8116600281116104f45760ff8f16106104eb575b506001016104b3565b9c5060016104e2565b60405162461bcd60e51b815260206004820152601060248201526f2ab739bab83837b93a32b2103a34b2b960811b6044820152606490fd5b508a6105378d611b6e565b93843410610a1c57335f52600260205260405f2095336bffffffffffffffffffffffff60a01b88541617875560018701916001600160401b0382116107df5761058a82610584855461174e565b856119fa565b5f90601f83116001146109b8576105b892915f91836109ad575b50508160011b915f199060031b1c19161790565b90555b60028501600160401b8a116107df5780548a82558a818110610960575b505088905f5260205f208a60051c905f5b82811061092b5750601f198c168c03806108dd575b5050505060038501906001600160401b0388116107df5761062988610623845461174e565b846119fa565b5f9188601f8111600114610872578061065a91610672955f91610867575b508160011b915f199060031b1c19161790565b90555b600486019060ff801983541691151516179055565b60058401916001600160401b0382116107df5761069382610584855461174e565b5f90601f83116001146107fe5791806106c692600e979695945f926107f35750508160011b915f199060031b1c19161790565b90555b60068201554260078201554260088201555f600d82015501600160ff19825416179055335f52600360205260405f206107033482546119d7565b9055600554600160401b8110156107df57806001610724920160055561187a565b81549060031b9033821b9160018060a01b03901b1916179055335f52600660205260405f20600160ff1982541617905560405193806060860160608752526080850193905f905b8082106107ba57877f9835fea5bbd1668b8ac2767dae74dcb9e0b950d6dcfb385770474edb4f81afc4886107a88989898483036020860152611a3d565b9260408201528033930390a260018055005b90919485359060ff82168092036101575760208160019382935201960192019061076b565b634e487b7160e01b5f52604160045260245ffd5b013590508c806105a4565b601f19831691845f5260205f20925f5b81811061084f5750916001939185600e999897969410610836575b505050811b0190556106c9565b01355f19600384901b60f8161c191690558b8080610829565b9193602060018192878701358155019501920161080e565b90508a01358f610647565b505f8181526020812090938a601f1981165b8b8188106108c057506106729650106108a7575b5050600189811b01905561065d565b8901355f1960038c901b60f8161c191690558c80610898565b8301358455602096870196600190940193909201918c9150610884565b925f935f5b8181106108f75750505001558a8080806105fe565b90919460206109216001928461090c8a611a5d565b919060ff809160031b9316831b921b19161790565b96019291016108e2565b5f5f5b602081106109435750828201556001016105e9565b949060206109576001928861090c86611a5d565b9201950161092e565b61098b91835f52601f60205f20918180850160051c8401941680610992575b500160051c01906119e4565b8b8a6105d8565b5f198501908154905f199060200360031b1c1690555f61097f565b013590508e806105a4565b601f19831691845f5260205f20925f5b818110610a0457509084600195949392106109eb575b505050811b0190556105bb565b01355f19600384901b60f8161c191690558d80806109de565b919360206001819287870135815501950192016109c8565b60405162461bcd60e51b8152602060048201526012602482015271496e73756666696369656e74207374616b6560701b6044820152606490fd5b606460405162461bcd60e51b815260206004820152602060248201527f4174206c65617374206f6e65206d6f64656c20746965722072657175697265646044820152fd5b60405162461bcd60e51b8152602060048201526015602482015274129d5c9a5cd91a58dd1a5bdb881c995c5d5a5c9959605a1b6044820152606490fd5b60405162461bcd60e51b8152602060048201526011602482015270131bd8d85d1a5bdb881c995c5d5a5c9959607a1b6044820152606490fd5b60405162461bcd60e51b815260206004820152601160248201527012541194c810d251081c995c5d5a5c9959607a1b6044820152606490fd5b60405162461bcd60e51b815260206004820152601760248201527f4e6f646520616c726561647920726567697374657265640000000000000000006044820152606490fd5b633ee5aeb560e01b5f5260045ffd5b3461015757604036600319011261015757610bb6611738565b610bbe61186b565b9060018060a01b036008541633148015610cfb575b15610cac5760018060a01b031690815f52600260205260405f2090610bfd60078301541515611949565b60098201805460010181559015610c9c57600a8201600181540190555b600a820154906127108202918083046127101490151715610c885754908115610c74577ffc577563f1b9a0461e24abef1e1fcc0d33d3d881f20b5df6dda59de4aae2c82192602092600d92049182910155604051908152a2005b634e487b7160e01b5f52601260045260245ffd5b634e487b7160e01b5f52601160045260245ffd5b600b820160018154019055610c1a565b60405162461bcd60e51b815260206004820152602160248201527f43616c6c6572206973206e6f7420617574686f72697a6564207265706f7274656044820152603960f91b6064820152608490fd5b50335f52600760205260ff60405f205416610bd3565b3461015757604036600319011261015757610d2a611738565b6001600160a01b03165f90815260046020526040902080546024359081101561015757610d56916118d3565b5080546002610d67600184016117a7565b920154610d866040519384938452606060208501526060840190611847565b9060408301520390f35b34610157575f366003190112610157575f546040516001600160a01b039091168152602090f35b34610157575f366003190112610157576020604051613a988152f35b34610157575f36600319011261015757610deb611a6b565b5f80546001600160a01b0319811682556001600160a01b03167f8be0079c531659141344cd1fd0a4f28419497f9722a3daafe3b4186f6b6457e08280a3005b34610157575f366003190112610157576008546040516001600160a01b039091168152602090f35b3461015757606036600319011261015757610e6b611738565b6024356044356001600160401b03811161015757610e8d9036906004016118a6565b9092610ea460018060a01b0360085416331461198b565b60018060a01b031691825f52600260205260405f2093610ec960078601541515611949565b835f5260036020528160405f20541061114357835f52600360205260405f20805490838203918211610c885755600c8501610f058382546119d7565b9055835f52600460205260405f2094604051606081018181106001600160401b038211176107df576040528381526001600160401b0385116107df5760405196610f59601f8701601f191660200189611786565b858852368685011161015757858460208a01375f6020878a0101526020820197885260408201904282528054600160401b8110156107df57610fa0916001820181556118d3565b929092611130575182556001820197519788516001600160401b0381116107df57610fcf81610623845461174e565b6020601f82116001146110a857816002949392611023927ff01c221c7c701500e404c5ca895a27bc78f37fda608b573e760f7a44dafb14199c9d5f9261109d5750508160011b915f199060031b1c19161790565b90555b51910155855f52600360205260405f2054600682015411611078575b50845f52600360205261106d60405f2054916040519485948552606060208601526060850191611a3d565b9060408301520390a2005b600e0160ff198154169055845f52600660205260405f2060ff19815416905585611042565b015190508d806105a4565b601f1982169a835f52815f209b5f5b81811061111857509b600192849260029796957ff01c221c7c701500e404c5ca895a27bc78f37fda608b573e760f7a44dafb14199e9f10611100575b505050811b019055611026565b01515f1960f88460031b161c191690558c80806110f3565b838301518e556001909d019c602093840193016110b7565b634e487b7160e01b5f525f60045260245ffd5b60405162461bcd60e51b815260206004820152601b60248201527f496e73756666696369656e74207374616b6520746f20736c61736800000000006044820152606490fd5b34610157575f36600319011261015757335f52600260205260405f206111b360078201541515611949565b60ff600e82015416156111f4576008429101556040514281527f2624c5ddd479637e355601e00556cf1a10d44699d074ca9cf74a15fb4c6a263b60203392a2005b60405162461bcd60e51b81526020600482015260126024820152714e6f6465206973206e6f742061637469766560701b6044820152606490fd5b34610157576020366003190112610157576004356005548110156101575761125760209161187a565b905460405160039290921b1c6001600160a01b03168152f35b34610157575f36600319011261015757602060405161c3508152f35b34610157576020366003190112610157576001600160a01b036112ad611738565b165f526007602052602060ff60405f2054166040519015158152f35b34610157575f36600319011261015757335f526002602052600e60405f206112f660078201541515611949565b01805460ff8116156113205760ff19169055335f52600660205260405f2060ff1981541690555f80f35b60405162461bcd60e51b81526020600482015260156024820152744e6f646520616c726561647920696e61637469766560581b6044820152606490fd5b346101575760403660031901126101575760043560ff811681036101575761138361186b565b906005549161139183611903565b925f925f925b8284106114295785856113a981611903565b915f5b82811061140157836040518091602082016020835281518091526020604084019201905f5b8181106113df575050500390f35b82516001600160a01b03168452859450602093840193909201916001016113d1565b6001906001600160a01b036114168285611935565b51166114228287611935565b52016113ac565b909192936114368561187a565b60018060a01b0391549060031b1c16805f52600260205261145c83858360405f20611a91565b1561147d576001918291611470828a611935565b5201945b01929190611397565b5093600190611474565b34610157575f366003190112610157576009546040516001600160a01b039091168152602090f35b34610157576040366003190112610157576114c8611738565b6114d061186b565b906114d9611a6b565b6001600160a01b03169081156115385760207f0b2bd2515a05891aed673ad4bbdbd245ba704b29d0e0b5ed6c5a426acd48329391835f526007825261152d8160405f209060ff801983541691151516179055565b6040519015158152a2005b60405162461bcd60e51b815260206004820152601060248201526f24b73b30b634b2103932b837b93a32b960811b6044820152606490fd5b34610157576020366003190112610157576001600160a01b03611591611738565b165f52600260205260c060405f20600981015490600a81015490600b810154600d820154906008600c84015493015493604051958652602086015260408501526060840152608083015260a0820152f35b34610157576020366003190112610157576001600160a01b03611603611738565b165f90815260026020526040902080546001600160a01b0316611628600183016117a7565b91611635600382016117a7565b600482015460ff169161164a600582016117a7565b9260068201549360078301546008840154600985015490600a86015492600b87015494600c88015496600d89015498600e015460ff16996040519d8e9d8e528d602081016101c090526101c0016116a091611847565b8d810360408f01526116b191611847565b90151560608d01528b810360808d01526116ca91611847565b9860a08b015260c08a015260e089015261010088015261012087015261014086015261016085015261018084015215156101a08301520390f35b34610157576020366003190112610157576020906001600160a01b03611728611738565b165f526003825260405f20548152f35b600435906001600160a01b038216820361015757565b90600182811c9216801561177c575b602083101461176857565b634e487b7160e01b5f52602260045260245ffd5b91607f169161175d565b90601f801991011681019081106001600160401b038211176107df57604052565b9060405191825f8254926117ba8461174e565b808452936001811690811561182557506001146117e1575b506117df92500383611786565b565b90505f9291925260205f20905f915b8183106118095750509060206117df928201015f6117d2565b60209193508060019154838589010152019101909184926117f0565b9050602092506117df94915060ff191682840152151560051b8201015f6117d2565b805180835260209291819084018484015e5f828201840152601f01601f1916010190565b60243590811515820361015757565b6005548110156118925760055f5260205f2001905f90565b634e487b7160e01b5f52603260045260245ffd5b9181601f84011215610157578235916001600160401b038311610157576020838186019501011161015757565b8054821015611892575f52600360205f20910201905f90565b6001600160401b0381116107df5760051b60200190565b9061190d826118ec565b61191a6040519182611786565b828152809261192b601f19916118ec565b0190602036910137565b80518210156118925760209160051b010190565b1561195057565b60405162461bcd60e51b8152602060048201526013602482015272139bd919481b9bdd081c9959da5cdd195c9959606a1b6044820152606490fd5b1561199257565b60405162461bcd60e51b815260206004820152601960248201527f43616c6c6572206973206e6f742049434c2073657276696365000000000000006044820152606490fd5b91908201809211610c8857565b8181106119ef575050565b5f81556001016119e4565b9190601f8111611a0957505050565b6117df925f5260205f20906020601f840160051c83019310611a33575b601f0160051c01906119e4565b9091508190611a26565b908060209392818452848401375f828201840152601f01601f1916010190565b3560ff811681036101575790565b5f546001600160a01b03163303611a7e57565b63118cdaa760e01b5f523360045260245ffd5b929060018060a01b031690815f52600660205260ff60405f205416158015611b21575b611b1957600884015460788101809111610c88574211611b195780611b0a575b611b03575f52600360205260405f2054600683015411611afd576002611afa9201611b30565b90565b50505f90565b5050505f90565b5060ff60048401541615611ad4565b505050505f90565b5060ff600e8501541615611ab4565b905f5b8254811015611b0357825f5260205f208160051c015460ff8084169160f88460031b161c161015611b6657600101611b33565b505050600190565b60ff168015611bcb5760018114611bc457600214611bbe5760405162461bcd60e51b815260206004820152601060248201526f2ab739bab83837b93a32b2103a34b2b960811b6044820152606490fd5b61c35090565b50613a9890565b506113889056fea26469706673582212206698b9f4efda95bd73e2686b32a494c4cd8ea7d2f9f9c007ced935ef6ada32f064736f6c634300081c0033","linkReferences":{}},"methodIdentifiers":{"TIER0_MIN_STAKE()":"ed181b5b","TIER1_MIN_STAKE()":"86709d9f","TIER2_MIN_STAKE()":"6002c8e8","activeNodes(address)":"df6dd670","deactivate()":"51b42b00","getActiveNodes(uint8,bool)":"4d087bb1","getNodeMetrics(address)":"2135a872","getRegisteredNodesCount()":"fd74c776","gknTokenAddress()":"486033a9","iclServiceAddress()":"67f9ade3","isActive(address)":"9f8a13d7","nodes(address)":"189a5a17","owner()":"8da5cb5b","reactivate()":"d18611d6","recordTaskResult(address,bool)":"ce433066","register(string,uint8[],string,bool,string)":"ceb6c803","registeredNodes(uint256)":"61ca89fa","renounceOwnership()":"715018a6","setTaskResultReporter(address,bool)":"450a889a","slash(address,uint256,string)":"678b3ee2","slashHistory(address,uint256)":"8e580213","stakes(address)":"16934fc4","taskResultReporters(address)":"5a5de03f","transferOwnership(address)":"f2fde38b","updateHeartbeat()":"66e61567","updateReputation(address,uint256)":"f5c91a08"},"id":4}