{
  "abi": [
    {
      "type": "constructor",
      "inputs": [],
      "stateMutability": "nonpayable"
    },
    {
      "type": "fallback",
      "stateMutability": "payable"
    },
    {
      "type": "receive",
      "stateMutability": "payable"
    },
    {
      "type": "function",
      "name": "authorizedICL",
      "inputs": [
        {
          "name": "",
          "type": "address",
          "internalType": "address"
        }
      ],
      "outputs": [
        {
          "name": "",
          "type": "bool",
          "internalType": "bool"
        }
      ],
      "stateMutability": "view"
    },
    {
      "type": "function",
      "name": "getNode",
      "inputs": [
        {
          "name": "node",
          "type": "address",
          "internalType": "address"
        }
      ],
      "outputs": [
        {
          "name": "",
          "type": "tuple",
          "internalType": "struct NodeRegistry.Node",
          "components": [
            {
              "name": "operator",
              "type": "address",
              "internalType": "address"
            },
            {
              "name": "tier",
              "type": "uint8",
              "internalType": "uint8"
            },
            {
              "name": "attestationHash",
              "type": "bytes32",
              "internalType": "bytes32"
            },
            {
              "name": "registeredAt",
              "type": "uint64",
              "internalType": "uint64"
            },
            {
              "name": "lastHeartbeat",
              "type": "uint64",
              "internalType": "uint64"
            },
            {
              "name": "attestationExpires",
              "type": "uint64",
              "internalType": "uint64"
            },
            {
              "name": "active",
              "type": "bool",
              "internalType": "bool"
            },
            {
              "name": "models",
              "type": "string[]",
              "internalType": "string[]"
            },
            {
              "name": "stake",
              "type": "uint256",
              "internalType": "uint256"
            }
          ]
        }
      ],
      "stateMutability": "view"
    },
    {
      "type": "function",
      "name": "heartbeat",
      "inputs": [],
      "outputs": [],
      "stateMutability": "nonpayable"
    },
    {
      "type": "function",
      "name": "heartbeatGraceSeconds",
      "inputs": [],
      "outputs": [
        {
          "name": "",
          "type": "uint64",
          "internalType": "uint64"
        }
      ],
      "stateMutability": "view"
    },
    {
      "type": "function",
      "name": "initialize",
      "inputs": [
        {
          "name": "owner_",
          "type": "address",
          "internalType": "address"
        },
        {
          "name": "iclService",
          "type": "address",
          "internalType": "address"
        }
      ],
      "outputs": [],
      "stateMutability": "nonpayable"
    },
    {
      "type": "function",
      "name": "isActive",
      "inputs": [
        {
          "name": "node",
          "type": "address",
          "internalType": "address"
        }
      ],
      "outputs": [
        {
          "name": "",
          "type": "bool",
          "internalType": "bool"
        }
      ],
      "stateMutability": "view"
    },
    {
      "type": "function",
      "name": "isAuthorizedICL",
      "inputs": [
        {
          "name": "addr",
          "type": "address",
          "internalType": "address"
        }
      ],
      "outputs": [
        {
          "name": "",
          "type": "bool",
          "internalType": "bool"
        }
      ],
      "stateMutability": "view"
    },
    {
      "type": "function",
      "name": "minStake",
      "inputs": [],
      "outputs": [
        {
          "name": "",
          "type": "uint256",
          "internalType": "uint256"
        }
      ],
      "stateMutability": "view"
    },
    {
      "type": "function",
      "name": "nodes",
      "inputs": [
        {
          "name": "",
          "type": "address",
          "internalType": "address"
        }
      ],
      "outputs": [
        {
          "name": "operator",
          "type": "address",
          "internalType": "address"
        },
        {
          "name": "tier",
          "type": "uint8",
          "internalType": "uint8"
        },
        {
          "name": "attestationHash",
          "type": "bytes32",
          "internalType": "bytes32"
        },
        {
          "name": "registeredAt",
          "type": "uint64",
          "internalType": "uint64"
        },
        {
          "name": "lastHeartbeat",
          "type": "uint64",
          "internalType": "uint64"
        },
        {
          "name": "attestationExpires",
          "type": "uint64",
          "internalType": "uint64"
        },
        {
          "name": "active",
          "type": "bool",
          "internalType": "bool"
        },
        {
          "name": "stake",
          "type": "uint256",
          "internalType": "uint256"
        }
      ],
      "stateMutability": "view"
    },
    {
      "type": "function",
      "name": "owner",
      "inputs": [],
      "outputs": [
        {
          "name": "",
          "type": "address",
          "internalType": "address"
        }
      ],
      "stateMutability": "view"
    },
    {
      "type": "function",
      "name": "register",
      "inputs": [
        {
          "name": "tier",
          "type": "uint8",
          "internalType": "uint8"
        },
        {
          "name": "attestationHash",
          "type": "bytes32",
          "internalType": "bytes32"
        },
        {
          "name": "attestationExpires",
          "type": "uint64",
          "internalType": "uint64"
        },
        {
          "name": "models",
          "type": "string[]",
          "internalType": "string[]"
        }
      ],
      "outputs": [
        {
          "name": "",
          "type": "bool",
          "internalType": "bool"
        }
      ],
      "stateMutability": "payable"
    },
    {
      "type": "function",
      "name": "renounceOwnership",
      "inputs": [],
      "outputs": [],
      "stateMutability": "nonpayable"
    },
    {
      "type": "function",
      "name": "setAuthorizedICL",
      "inputs": [
        {
          "name": "addr",
          "type": "address",
          "internalType": "address"
        },
        {
          "name": "authorized",
          "type": "bool",
          "internalType": "bool"
        }
      ],
      "outputs": [],
      "stateMutability": "nonpayable"
    },
    {
      "type": "function",
      "name": "setHeartbeatGrace",
      "inputs": [
        {
          "name": "seconds_",
          "type": "uint64",
          "internalType": "uint64"
        }
      ],
      "outputs": [],
      "stateMutability": "nonpayable"
    },
    {
      "type": "function",
      "name": "setMinStake",
      "inputs": [
        {
          "name": "amount",
          "type": "uint256",
          "internalType": "uint256"
        }
      ],
      "outputs": [],
      "stateMutability": "nonpayable"
    },
    {
      "type": "function",
      "name": "transferOwnership",
      "inputs": [
        {
          "name": "newOwner",
          "type": "address",
          "internalType": "address"
        }
      ],
      "outputs": [],
      "stateMutability": "nonpayable"
    },
    {
      "type": "function",
      "name": "updateAttestation",
      "inputs": [
        {
          "name": "node",
          "type": "address",
          "internalType": "address"
        },
        {
          "name": "attestationHash",
          "type": "bytes32",
          "internalType": "bytes32"
        },
        {
          "name": "tier",
          "type": "uint8",
          "internalType": "uint8"
        },
        {
          "name": "expiresAt",
          "type": "uint64",
          "internalType": "uint64"
        }
      ],
      "outputs": [],
      "stateMutability": "nonpayable"
    },
    {
      "type": "function",
      "name": "withdrawStake",
      "inputs": [],
      "outputs": [],
      "stateMutability": "nonpayable"
    },
    {
      "type": "event",
      "name": "Heartbeat",
      "inputs": [
        {
          "name": "node",
          "type": "address",
          "indexed": true,
          "internalType": "address"
        },
        {
          "name": "timestamp",
          "type": "uint64",
          "indexed": false,
          "internalType": "uint64"
        }
      ],
      "anonymous": false
    },
    {
      "type": "event",
      "name": "Initialized",
      "inputs": [
        {
          "name": "version",
          "type": "uint64",
          "indexed": false,
          "internalType": "uint64"
        }
      ],
      "anonymous": false
    },
    {
      "type": "event",
      "name": "NodeRegistered",
      "inputs": [
        {
          "name": "node",
          "type": "address",
          "indexed": true,
          "internalType": "address"
        },
        {
          "name": "tier",
          "type": "uint8",
          "indexed": false,
          "internalType": "uint8"
        },
        {
          "name": "models",
          "type": "string[]",
          "indexed": false,
          "internalType": "string[]"
        },
        {
          "name": "stake",
          "type": "uint256",
          "indexed": false,
          "internalType": "uint256"
        }
      ],
      "anonymous": false
    },
    {
      "type": "event",
      "name": "NodeRemoved",
      "inputs": [
        {
          "name": "node",
          "type": "address",
          "indexed": true,
          "internalType": "address"
        }
      ],
      "anonymous": false
    },
    {
      "type": "event",
      "name": "NodeUpdated",
      "inputs": [
        {
          "name": "node",
          "type": "address",
          "indexed": true,
          "internalType": "address"
        },
        {
          "name": "tier",
          "type": "uint8",
          "indexed": false,
          "internalType": "uint8"
        },
        {
          "name": "attestationHash",
          "type": "bytes32",
          "indexed": false,
          "internalType": "bytes32"
        },
        {
          "name": "expiresAt",
          "type": "uint256",
          "indexed": false,
          "internalType": "uint256"
        }
      ],
      "anonymous": false
    },
    {
      "type": "event",
      "name": "OwnershipTransferred",
      "inputs": [
        {
          "name": "previousOwner",
          "type": "address",
          "indexed": true,
          "internalType": "address"
        },
        {
          "name": "newOwner",
          "type": "address",
          "indexed": true,
          "internalType": "address"
        }
      ],
      "anonymous": false
    },
    {
      "type": "event",
      "name": "StakeWithdrawn",
      "inputs": [
        {
          "name": "node",
          "type": "address",
          "indexed": true,
          "internalType": "address"
        },
        {
          "name": "amount",
          "type": "uint256",
          "indexed": false,
          "internalType": "uint256"
        }
      ],
      "anonymous": false
    },
    {
      "type": "error",
      "name": "InvalidInitialization",
      "inputs": []
    },
    {
      "type": "error",
      "name": "NotInitializing",
      "inputs": []
    },
    {
      "type": "error",
      "name": "OwnableInvalidOwner",
      "inputs": [
        {
          "name": "owner",
          "type": "address",
          "internalType": "address"
        }
      ]
    },
    {
      "type": "error",
      "name": "OwnableUnauthorizedAccount",
      "inputs": [
        {
          "name": "account",
          "type": "address",
          "internalType": "address"
        }
      ]
    },
    {
      "type": "error",
      "name": "ReentrancyGuardReentrantCall",
      "inputs": []
    }
  ],
  "bytecode": {
    "object": "0x6080604052600380546001600160401b03191661012c1790555f6004553480156026575f5ffd5b5060015f5560316035565b60e5565b7ff0c57e16840df040f15088dc2f81fe391c3923bec73e23a9662efc9c229c6a00805468010000000000000000900460ff161560845760405163f92ee8a960e01b815260040160405180910390fd5b80546001600160401b039081161460e25780546001600160401b0319166001600160401b0390811782556040519081527fc7f505b2f371ae2175ee4913f4499e1f2633a7b5936321eed1cdaeb6115181d29060200160405180910390a15b50565b61181c806100f25f395ff3fe6080604052600436106100ff575f3560e01c80638c80fd901161008e578063bed9d86111610060578063bed9d86114610399578063d5517d9c146103ad578063efcdc7ba146103c0578063f2fde38b146103ee578063f859ab341461040d57005b80638c80fd90146103035780638da5cb5b146103225780639d2090481461034e5780639f8a13d71461037a57005b80633defb962116100d25780633defb9621461027e57806346acbfa514610292578063485cc955146102b1578063618ef9d2146102d0578063715018a6146102ef57005b806303be1fbc14610101578063189a5a171461014d5780633080ac4114610224578063375b3c0a1461025b575b005b34801561010c575f5ffd5b5061013861011b36600461114d565b6001600160a01b03165f9081526002602052604090205460ff1690565b60405190151581526020015b60405180910390f35b348015610158575f5ffd5b506101cf61016736600461114d565b600160208190525f918252604090912080549181015460028201546004909201546001600160a01b0384169360ff600160a01b9091048116936001600160401b0380821693600160401b8304821693600160801b840490921692600160c01b90049091169088565b604080516001600160a01b03909916895260ff9097166020890152958701949094526001600160401b03928316606087015290821660808601521660a0840152151560c083015260e082015261010001610144565b34801561022f575f5ffd5b50600354610243906001600160401b031681565b6040516001600160401b039091168152602001610144565b348015610266575f5ffd5b5061027060045481565b604051908152602001610144565b348015610289575f5ffd5b506100ff61042c565b34801561029d575f5ffd5b506100ff6102ac36600461117c565b610508565b3480156102bc575f5ffd5b506100ff6102cb366004611195565b610533565b3480156102db575f5ffd5b506100ff6102ea3660046111d6565b610662565b3480156102fa575f5ffd5b506100ff6107e6565b34801561030e575f5ffd5b506100ff61031d366004611220565b6107f9565b34801561032d575f5ffd5b50610336610806565b6040516001600160a01b039091168152602001610144565b348015610359575f5ffd5b5061036d61036836600461114d565b610834565b60405161014491906112b1565b348015610385575f5ffd5b5061013861039436600461114d565b6109e5565b3480156103a4575f5ffd5b506100ff610a20565b6101386103bb366004611372565b610baa565b3480156103cb575f5ffd5b506101386103da36600461114d565b60026020525f908152604090205460ff1681565b3480156103f9575f5ffd5b506100ff61040836600461114d565b610e62565b348015610418575f5ffd5b506100ff610427366004611408565b610e9f565b335f90815260016020526040902080546001600160a01b031661046a5760405162461bcd60e51b815260040161046190611441565b60405180910390fd5b6002810180546fffffffffffffffff00000000000000001916600160401b426001600160401b03160217905561049f81610ed1565b60028201805460ff60c01b1916600160c01b921515929092029190911790819055604051600160401b9091046001600160401b0316815233907f72382836110f8dba15205d0508ec794c885dfa0cf8e4a75f68386f14e19ecdc19060200160405180910390a250565b610510610f50565b6003805467ffffffffffffffff19166001600160401b0392909216919091179055565b7ff0c57e16840df040f15088dc2f81fe391c3923bec73e23a9662efc9c229c6a008054600160401b810460ff1615906001600160401b03165f811580156105775750825b90505f826001600160401b031660011480156105925750303b155b9050811580156105a0575080155b156105be5760405163f92ee8a960e01b815260040160405180910390fd5b845467ffffffffffffffff1916600117855583156105e857845460ff60401b1916600160401b1785555b6105f187610f82565b6001600160a01b0386165f908152600260205260409020805460ff19166001179055831561065957845460ff60401b19168555604051600181527fc7f505b2f371ae2175ee4913f4499e1f2633a7b5936321eed1cdaeb6115181d29060200160405180910390a15b50505050505050565b335f9081526002602052604090205460ff16806106975750610682610806565b6001600160a01b0316336001600160a01b0316145b6106e35760405162461bcd60e51b815260206004820152601f60248201527f4e6f646552656769737472793a2063616c6c6572206973206e6f742049434c006044820152606401610461565b6001600160a01b038085165f908152600160205260409020805490911661071c5760405162461bcd60e51b815260040161046190611441565b60018101849055805460ff60a01b1916600160a01b60ff85160217815560028101805467ffffffffffffffff60801b1916600160801b6001600160401b0385160217905561076981610ed1565b60028201805460ff60c01b1916600160c01b921515929092029190911790556040805160ff85168152602081018690526001600160401b0384168183015290516001600160a01b038716917f89cc6a0f3aeef6abe3b6bd70f6ee6e84b9a5dba4be86bace3928b1d2182675b8919081900360600190a25050505050565b6107ee610f50565b6107f75f610f93565b565b610801610f50565b600455565b7f9016d09d72d40fdae2fd8ceac6b6234c7706214fd39c1cd1e609a0528c199300546001600160a01b031690565b60408051610120810182525f8082526020820181905291810182905260608082018390526080820183905260a0820183905260c0820183905260e08201526101008101919091526001600160a01b038083165f9081526001602081815260408084208151610120810183528154968716815260ff600160a01b909704871681850152938101548483015260028101546001600160401b038082166060870152600160401b820481166080870152600160801b82041660a0860152600160c01b9004909516151560c084015260038501805482518185028101850190935280835293959460e0870194929391929184015b828210156109cc578382905f5260205f2001805461094190611478565b80601f016020809104026020016040519081016040528092919081815260200182805461096d90611478565b80156109b85780601f1061098f576101008083540402835291602001916109b8565b820191905f5260205f20905b81548152906001019060200180831161099b57829003601f168201915b505050505081526020019060010190610924565b5050505081526020016004820154815250509050919050565b6001600160a01b038082165f90815260016020526040812080549192909116610a1057505f92915050565b610a1981610ed1565b9392505050565b610a28611003565b335f90815260016020526040902080546001600160a01b0316610a5d5760405162461bcd60e51b815260040161046190611441565b6002810154600160c01b900460ff1615610ab95760405162461bcd60e51b815260206004820152601f60248201527f4e6f646552656769737472793a206e6f6465207374696c6c20616374697665006044820152606401610461565b6004810180545f9182905560028301805460ff60c01b19169055604051909190339083908381818185875af1925050503d805f8114610b13576040519150601f19603f3d011682016040523d82523d5f602084013e610b18565b606091505b5050905080610b695760405162461bcd60e51b815260206004820152601d60248201527f4e6f646552656769737472793a207472616e73666572206661696c65640000006044820152606401610461565b60405182815233907f8108595eb6bad3acefa9da467d90cc2217686d5c5ac85460f8b7849c840645fc9060200160405180910390a25050506107f760015f55565b5f610bb3611003565b60028660ff161115610c075760405162461bcd60e51b815260206004820152601a60248201527f4e6f646552656769737472793a20696e76616c696420746965720000000000006044820152606401610461565b335f908152600160205260409020546001600160a01b031615610c6c5760405162461bcd60e51b815260206004820181905260248201527f4e6f646552656769737472793a20616c726561647920726567697374657265646044820152606401610461565b600454341015610cbe5760405162461bcd60e51b815260206004820181905260248201527f4e6f646552656769737472793a20696e73756666696369656e74207374616b656044820152606401610461565b604080516101208101825233815260ff881660208201529081018690526001600160401b03428116606083018190526080830152851660a0820152600160c082015260e08101610d0e84866114f4565b815234602091820152335f9081526001808352604091829020845181548686015160ff16600160a01b026001600160a81b03199091166001600160a01b03929092169190911717815591840151908201556060830151600282018054608086015160a087015160c08801511515600160c01b0260ff60c01b196001600160401b03928316600160801b021668ffffffffffffffffff60801b19938316600160401b026fffffffffffffffffffffffffffffffff19909516929096169190911792909217169290921791909117905560e083015180519192610df79260038501929091019061107c565b506101008201518160040155905050336001600160a01b03167f84e6c2ab942e3965f1158ff090fa62da1428722ecbe3cf26733022da68ef6bb987858534604051610e4594939291906115fe565b60405180910390a2506001610e5960015f55565b95945050505050565b610e6a610f50565b6001600160a01b038116610e9357604051631e4fbdf760e01b81525f6004820152602401610461565b610e9c81610f93565b50565b610ea7610f50565b6001600160a01b03919091165f908152600260205260409020805460ff1916911515919091179055565b80545f906001600160a01b0316610ee957505f919050565b6002820154600160801b90046001600160401b0316421115610f0c57505f919050565b6003546002830154610f31916001600160401b0390811691600160401b9004166116af565b6001600160401b0316421115610f4857505f919050565b506001919050565b33610f59610806565b6001600160a01b0316146107f75760405163118cdaa760e01b8152336004820152602401610461565b610f8a61102b565b610e9c81611074565b7f9016d09d72d40fdae2fd8ceac6b6234c7706214fd39c1cd1e609a0528c19930080546001600160a01b031981166001600160a01b03848116918217845560405192169182907f8be0079c531659141344cd1fd0a4f28419497f9722a3daafe3b4186f6b6457e0905f90a3505050565b60025f540361102557604051633ee5aeb560e01b815260040160405180910390fd5b60025f55565b7ff0c57e16840df040f15088dc2f81fe391c3923bec73e23a9662efc9c229c6a0054600160401b900460ff166107f757604051631afcd79f60e31b815260040160405180910390fd5b610e6a61102b565b828054828255905f5260205f209081019282156110c0579160200282015b828111156110c057825182906110b0908261172c565b509160200191906001019061109a565b506110cc9291506110d0565b5090565b808211156110cc575f6110e382826110ec565b506001016110d0565b5080546110f890611478565b5f825580601f10611107575050565b601f0160209004905f5260205f2090810190610e9c91905b808211156110cc575f815560010161111f565b80356001600160a01b0381168114611148575f5ffd5b919050565b5f6020828403121561115d575f5ffd5b610a1982611132565b80356001600160401b0381168114611148575f5ffd5b5f6020828403121561118c575f5ffd5b610a1982611166565b5f5f604083850312156111a6575f5ffd5b6111af83611132565b91506111bd60208401611132565b90509250929050565b803560ff81168114611148575f5ffd5b5f5f5f5f608085870312156111e9575f5ffd5b6111f285611132565b935060208501359250611207604086016111c6565b915061121560608601611166565b905092959194509250565b5f60208284031215611230575f5ffd5b5035919050565b5f82825180855260208501945060208160051b830101602085015f5b838110156112a557601f19858403018852815180518085528060208301602087015e5f602082870101526020601f19601f83011686010194505050602082019150602088019750600181019050611253565b50909695505050505050565b602081526112cb6020820183516001600160a01b03169052565b5f60208301516112e0604084018260ff169052565b5060408301516060830152606083015161130560808401826001600160401b03169052565b5060808301516001600160401b03811660a08401525060a08301516001600160401b03811660c08401525060c083015180151560e08401525060e083015161012061010084015261135a610140840182611237565b90506101008401516101208401528091505092915050565b5f5f5f5f5f60808688031215611386575f5ffd5b61138f866111c6565b9450602086013593506113a460408701611166565b925060608601356001600160401b038111156113be575f5ffd5b8601601f810188136113ce575f5ffd5b80356001600160401b038111156113e3575f5ffd5b8860208260051b84010111156113f7575f5ffd5b959894975092955050506020019190565b5f5f60408385031215611419575f5ffd5b61142283611132565b915060208301358015158114611436575f5ffd5b809150509250929050565b6020808252601c908201527f4e6f646552656769737472793a206e6f6465206e6f7420666f756e6400000000604082015260600190565b600181811c9082168061148c57607f821691505b6020821081036114aa57634e487b7160e01b5f52602260045260245ffd5b50919050565b634e487b7160e01b5f52604160045260245ffd5b604051601f8201601f191681016001600160401b03811182821017156114ec576114ec6114b0565b604052919050565b5f6001600160401b0383111561150c5761150c6114b0565b8260051b61151c602082016114c4565b84815290830190602081019036831115611534575f5ffd5b845b838110156115cc5780356001600160401b03811115611553575f5ffd5b860136601f820112611563575f5ffd5b80356001600160401b0381111561157c5761157c6114b0565b61158f601f8201601f19166020016114c4565b8181523660208385010111156115a3575f5ffd5b816020840160208301375f60208383010152808652505050602083019250602081019050611536565b5095945050505050565b81835281816020850137505f828201602090810191909152601f909101601f19169091010190565b60ff8516815260606020820181905281018390525f6080600585901b830181019083018683601e1936839003015b8882101561169957868503607f19018452823581811261164a575f5ffd5b8a016020810190356001600160401b03811115611665575f5ffd5b803603821315611673575f5ffd5b61167e8782846115d6565b9650505060208301925060208401935060018201915061162c565b5050505060409290920192909252949350505050565b6001600160401b0381811683821601908111156116da57634e487b7160e01b5f52601160045260245ffd5b92915050565b601f82111561172757805f5260205f20601f840160051c810160208510156117055750805b601f840160051c820191505b81811015611724575f8155600101611711565b50505b505050565b81516001600160401b03811115611745576117456114b0565b611759816117538454611478565b846116e0565b6020601f82116001811461178b575f83156117745750848201515b5f19600385901b1c1916600184901b178455611724565b5f84815260208120601f198516915b828110156117ba578785015182556020948501946001909201910161179a565b50848210156117d757868401515f19600387901b60f8161c191681555b50505050600190811b0190555056fea2646970667358221220e39ba1052ed7418b1a66ec74b1b38872c6d3ca44f0c19a26ab606cd2fdc5cc8064736f6c634300081c0033",
    "linkReferences": {}
  },
  "methodIdentifiers": {
    "authorizedICL(address)": "efcdc7ba",
    "getNode(address)": "9d209048",
    "heartbeat()": "3defb962",
    "heartbeatGraceSeconds()": "3080ac41",
    "initialize(address,address)": "485cc955",
    "isActive(address)": "9f8a13d7",
    "isAuthorizedICL(address)": "03be1fbc",
    "minStake()": "375b3c0a",
    "nodes(address)": "189a5a17",
    "owner()": "8da5cb5b",
    "register(uint8,bytes32,uint64,string[])": "d5517d9c",
    "renounceOwnership()": "715018a6",
    "setAuthorizedICL(address,bool)": "f859ab34",
    "setHeartbeatGrace(uint64)": "46acbfa5",
    "setMinStake(uint256)": "8c80fd90",
    "transferOwnership(address)": "f2fde38b",
    "updateAttestation(address,bytes32,uint8,uint64)": "618ef9d2",
    "withdrawStake()": "bed9d861"
  },
  "storageLayout": {
    "storage": [
      {
        "astId": 28949,
        "contract": "contracts/core/NodeRegistry.sol:NodeRegistry",
        "label": "_status",
        "offset": 0,
        "slot": "0",
        "type": "t_uint256"
      },
      {
        "astId": 4140,
        "contract": "contracts/core/NodeRegistry.sol:NodeRegistry",
        "label": "nodes",
        "offset": 0,
        "slot": "1",
        "type": "t_mapping(t_address,t_struct(Node)4135_storage)"
      },
      {
        "astId": 4144,
        "contract": "contracts/core/NodeRegistry.sol:NodeRegistry",
        "label": "authorizedICL",
        "offset": 0,
        "slot": "2",
        "type": "t_mapping(t_address,t_bool)"
      },
      {
        "astId": 4147,
        "contract": "contracts/core/NodeRegistry.sol:NodeRegistry",
        "label": "heartbeatGraceSeconds",
        "offset": 0,
        "slot": "3",
        "type": "t_uint64"
      },
      {
        "astId": 4150,
        "contract": "contracts/core/NodeRegistry.sol:NodeRegistry",
        "label": "minStake",
        "offset": 0,
        "slot": "4",
        "type": "t_uint256"
      }
    ],
    "types": {
      "t_address": {
        "encoding": "inplace",
        "label": "address",
        "numberOfBytes": "20"
      },
      "t_array(t_string_storage)dyn_storage": {
        "encoding": "dynamic_array",
        "label": "string[]",
        "numberOfBytes": "32",
        "base": "t_string_storage"
      },
      "t_bool": {
        "encoding": "inplace",
        "label": "bool",
        "numberOfBytes": "1"
      },
      "t_bytes32": {
        "encoding": "inplace",
        "label": "bytes32",
        "numberOfBytes": "32"
      },
      "t_mapping(t_address,t_bool)": {
        "encoding": "mapping",
        "key": "t_address",
        "label": "mapping(address => bool)",
        "numberOfBytes": "32",
        "value": "t_bool"
      },
      "t_mapping(t_address,t_struct(Node)4135_storage)": {
        "encoding": "mapping",
        "key": "t_address",
        "label": "mapping(address => struct NodeRegistry.Node)",
        "numberOfBytes": "32",
        "value": "t_struct(Node)4135_storage"
      },
      "t_string_storage": {
        "encoding": "bytes",
        "label": "string",
        "numberOfBytes": "32"
      },
      "t_struct(Node)4135_storage": {
        "encoding": "inplace",
        "label": "struct NodeRegistry.Node",
        "numberOfBytes": "160",
        "members": [
          {
            "astId": 4117,
            "contract": "contracts/core/NodeRegistry.sol:NodeRegistry",
            "label": "operator",
            "offset": 0,
            "slot": "0",
            "type": "t_address"
          },
          {
            "astId": 4119,
            "contract": "contracts/core/NodeRegistry.sol:NodeRegistry",
            "label": "tier",
            "offset": 20,
            "slot": "0",
            "type": "t_uint8"
          },
          {
            "astId": 4121,
            "contract": "contracts/core/NodeRegistry.sol:NodeRegistry",
            "label": "attestationHash",
            "offset": 0,
            "slot": "1",
            "type": "t_bytes32"
          },
          {
            "astId": 4123,
            "contract": "contracts/core/NodeRegistry.sol:NodeRegistry",
            "label": "registeredAt",
            "offset": 0,
            "slot": "2",
            "type": "t_uint64"
          },
          {
            "astId": 4125,
            "contract": "contracts/core/NodeRegistry.sol:NodeRegistry",
            "label": "lastHeartbeat",
            "offset": 8,
            "slot": "2",
            "type": "t_uint64"
          },
          {
            "astId": 4127,
            "contract": "contracts/core/NodeRegistry.sol:NodeRegistry",
            "label": "attestationExpires",
            "offset": 16,
            "slot": "2",
            "type": "t_uint64"
          },
          {
            "astId": 4129,
            "contract": "contracts/core/NodeRegistry.sol:NodeRegistry",
            "label": "active",
            "offset": 24,
            "slot": "2",
            "type": "t_bool"
          },
          {
            "astId": 4132,
            "contract": "contracts/core/NodeRegistry.sol:NodeRegistry",
            "label": "models",
            "offset": 0,
            "slot": "3",
            "type": "t_array(t_string_storage)dyn_storage"
          },
          {
            "astId": 4134,
            "contract": "contracts/core/NodeRegistry.sol:NodeRegistry",
            "label": "stake",
            "offset": 0,
            "slot": "4",
            "type": "t_uint256"
          }
        ]
      },
      "t_uint256": {
        "encoding": "inplace",
        "label": "uint256",
        "numberOfBytes": "32"
      },
      "t_uint64": {
        "encoding": "inplace",
        "label": "uint64",
        "numberOfBytes": "8"
      },
      "t_uint8": {
        "encoding": "inplace",
        "label": "uint8",
        "numberOfBytes": "1"
      }
    }
  },
  "id": 9
}