{"abi":[{"type":"constructor","inputs":[{"name":"trustedForwarder_","type":"address","internalType":"address"}],"stateMutability":"nonpayable"},{"type":"function","name":"UPGRADE_INTERFACE_VERSION","inputs":[],"outputs":[{"name":"","type":"string","internalType":"string"}],"stateMutability":"view"},{"type":"function","name":"attestationOf","inputs":[{"name":"node","type":"address","internalType":"address"},{"name":"attestationType","type":"bytes32","internalType":"bytes32"},{"name":"counterparty","type":"address","internalType":"address"}],"outputs":[{"name":"","type":"tuple","internalType":"struct INodeAttestationRegistry.Attestation","components":[{"name":"attestationType","type":"bytes32","internalType":"bytes32"},{"name":"documentHash","type":"bytes32","internalType":"bytes32"},{"name":"counterparty","type":"address","internalType":"address"},{"name":"effectiveAt","type":"uint64","internalType":"uint64"},{"name":"expiresAt","type":"uint64","internalType":"uint64"},{"name":"revoked","type":"bool","internalType":"bool"}]}],"stateMutability":"view"},{"type":"function","name":"commit","inputs":[{"name":"node","type":"address","internalType":"address"},{"name":"attestationType","type":"bytes32","internalType":"bytes32"},{"name":"documentHash","type":"bytes32","internalType":"bytes32"},{"name":"counterparty","type":"address","internalType":"address"},{"name":"effectiveAt","type":"uint64","internalType":"uint64"},{"name":"expiresAt","type":"uint64","internalType":"uint64"},{"name":"signature","type":"bytes","internalType":"bytes"}],"outputs":[],"stateMutability":"nonpayable"},{"type":"function","name":"digest","inputs":[{"name":"node","type":"address","internalType":"address"},{"name":"attestationType","type":"bytes32","internalType":"bytes32"},{"name":"documentHash","type":"bytes32","internalType":"bytes32"},{"name":"counterparty","type":"address","internalType":"address"},{"name":"effectiveAt","type":"uint64","internalType":"uint64"},{"name":"expiresAt","type":"uint64","internalType":"uint64"}],"outputs":[{"name":"","type":"bytes32","internalType":"bytes32"}],"stateMutability":"view"},{"type":"function","name":"hasValid","inputs":[{"name":"node","type":"address","internalType":"address"},{"name":"attestationType","type":"bytes32","internalType":"bytes32"},{"name":"counterparty","type":"address","internalType":"address"}],"outputs":[{"name":"","type":"bool","internalType":"bool"}],"stateMutability":"view"},{"type":"function","name":"initialize","inputs":[{"name":"owner_","type":"address","internalType":"address"}],"outputs":[],"stateMutability":"nonpayable"},{"type":"function","name":"isTrustedForwarder","inputs":[{"name":"forwarder","type":"address","internalType":"address"}],"outputs":[{"name":"","type":"bool","internalType":"bool"}],"stateMutability":"view"},{"type":"function","name":"owner","inputs":[],"outputs":[{"name":"","type":"address","internalType":"address"}],"stateMutability":"view"},{"type":"function","name":"proxiableUUID","inputs":[],"outputs":[{"name":"","type":"bytes32","internalType":"bytes32"}],"stateMutability":"view"},{"type":"function","name":"renounceOwnership","inputs":[],"outputs":[],"stateMutability":"nonpayable"},{"type":"function","name":"revoke","inputs":[{"name":"attestationType","type":"bytes32","internalType":"bytes32"},{"name":"counterparty","type":"address","internalType":"address"}],"outputs":[],"stateMutability":"nonpayable"},{"type":"function","name":"transferOwnership","inputs":[{"name":"newOwner","type":"address","internalType":"address"}],"outputs":[],"stateMutability":"nonpayable"},{"type":"function","name":"trustedForwarder","inputs":[],"outputs":[{"name":"","type":"address","internalType":"address"}],"stateMutability":"view"},{"type":"function","name":"upgradeToAndCall","inputs":[{"name":"newImplementation","type":"address","internalType":"address"},{"name":"data","type":"bytes","internalType":"bytes"}],"outputs":[],"stateMutability":"payable"},{"type":"event","name":"AttestationCommitted","inputs":[{"name":"node","type":"address","indexed":true,"internalType":"address"},{"name":"attestationType","type":"bytes32","indexed":true,"internalType":"bytes32"},{"name":"counterparty","type":"address","indexed":true,"internalType":"address"},{"name":"documentHash","type":"bytes32","indexed":false,"internalType":"bytes32"},{"name":"effectiveAt","type":"uint64","indexed":false,"internalType":"uint64"},{"name":"expiresAt","type":"uint64","indexed":false,"internalType":"uint64"}],"anonymous":false},{"type":"event","name":"AttestationRevoked","inputs":[{"name":"node","type":"address","indexed":true,"internalType":"address"},{"name":"attestationType","type":"bytes32","indexed":true,"internalType":"bytes32"},{"name":"counterparty","type":"address","indexed":true,"internalType":"address"}],"anonymous":false},{"type":"event","name":"Initialized","inputs":[{"name":"version","type":"uint64","indexed":false,"internalType":"uint64"}],"anonymous":false},{"type":"event","name":"OwnershipTransferred","inputs":[{"name":"previousOwner","type":"address","indexed":true,"internalType":"address"},{"name":"newOwner","type":"address","indexed":true,"internalType":"address"}],"anonymous":false},{"type":"event","name":"Upgraded","inputs":[{"name":"implementation","type":"address","indexed":true,"internalType":"address"}],"anonymous":false},{"type":"error","name":"AddressEmptyCode","inputs":[{"name":"target","type":"address","internalType":"address"}]},{"type":"error","name":"AttestationExpired","inputs":[]},{"type":"error","name":"AttestationNotFound","inputs":[]},{"type":"error","name":"CounterpartyConflict","inputs":[]},{"type":"error","name":"ECDSAInvalidSignature","inputs":[]},{"type":"error","name":"ECDSAInvalidSignatureLength","inputs":[{"name":"length","type":"uint256","internalType":"uint256"}]},{"type":"error","name":"ECDSAInvalidSignatureS","inputs":[{"name":"s","type":"bytes32","internalType":"bytes32"}]},{"type":"error","name":"ERC1967InvalidImplementation","inputs":[{"name":"implementation","type":"address","internalType":"address"}]},{"type":"error","name":"ERC1967NonPayable","inputs":[]},{"type":"error","name":"FailedCall","inputs":[]},{"type":"error","name":"InvalidInitialization","inputs":[]},{"type":"error","name":"InvalidSignature","inputs":[]},{"type":"error","name":"InvalidWindow","inputs":[]},{"type":"error","name":"NotInitializing","inputs":[]},{"type":"error","name":"NotNode","inputs":[]},{"type":"error","name":"OwnableInvalidOwner","inputs":[{"name":"owner","type":"address","internalType":"address"}]},{"type":"error","name":"OwnableUnauthorizedAccount","inputs":[{"name":"account","type":"address","internalType":"address"}]},{"type":"error","name":"ReentrancyGuardReentrantCall","inputs":[]},{"type":"error","name":"UUPSUnauthorizedCallContext","inputs":[]},{"type":"error","name":"UUPSUnsupportedProxiableUUID","inputs":[{"name":"slot","type":"bytes32","internalType":"bytes32"}]}],"bytecode":{"object":"0x60c060405230608052348015610013575f5ffd5b50604051611906380380611906833981016040819052610032916100ff565b6001600160a01b03811660a05261004761004d565b5061012c565b7ff0c57e16840df040f15088dc2f81fe391c3923bec73e23a9662efc9c229c6a00805468010000000000000000900460ff161561009d5760405163f92ee8a960e01b815260040160405180910390fd5b80546001600160401b03908116146100fc5780546001600160401b0319166001600160401b0390811782556040519081527fc7f505b2f371ae2175ee4913f4499e1f2633a7b5936321eed1cdaeb6115181d29060200160405180910390a15b50565b5f6020828403121561010f575f5ffd5b81516001600160a01b0381168114610125575f5ffd5b9392505050565b60805160a05161179d6101695f395f81816101350152818161019701526110a701525f8181610a1201528181610a3b0152610b7f015261179d5ff3fe6080604052600436106100d9575f3560e01c8063ad3cb1cc1161007c578063c7dffff011610057578063c7dffff0146102a5578063efd8871a146102c4578063f2fde38b146102e3578063fadc0e8214610302575f5ffd5b8063ad3cb1cc1461022a578063bd3665a914610267578063c4d66de814610286575f5ffd5b8063715018a6116100b7578063715018a6146101755780637da0a877146101895780637df51ed7146101cf5780638da5cb5b146101ee575f5ffd5b80634f1ef286146100dd57806352d1902d146100f2578063572b6c0514610119575b5f5ffd5b6100f06100eb36600461138b565b610388565b005b3480156100fd575f5ffd5b506101066103a7565b6040519081526020015b60405180910390f35b348015610124575f5ffd5b5061016561013336600461144c565b7f00000000000000000000000000000000000000000000000000000000000000006001600160a01b0390811691161490565b6040519015158152602001610110565b348015610180575f5ffd5b506100f06103c2565b348015610194575f5ffd5b507f00000000000000000000000000000000000000000000000000000000000000005b6040516001600160a01b039091168152602001610110565b3480156101da575f5ffd5b506101656101e9366004611465565b6103d5565b3480156101f9575f5ffd5b507f9016d09d72d40fdae2fd8ceac6b6234c7706214fd39c1cd1e609a0528c199300546001600160a01b03166101b7565b348015610235575f5ffd5b5061025a604051806040016040528060058152602001640352e302e360dc1b81525081565b604051610110919061149e565b348015610272575f5ffd5b506101066102813660046114e9565b610414565b348015610291575f5ffd5b506100f06102a036600461144c565b61042e565b3480156102b0575f5ffd5b506100f06102bf36600461154b565b61053a565b3480156102cf575f5ffd5b506100f06102de366004611609565b610825565b3480156102ee575f5ffd5b506100f06102fd36600461144c565b6108fc565b34801561030d575f5ffd5b5061032161031c366004611465565b61093e565b60405161011091905f60c082019050825182526020830151602083015260018060a01b0360408401511660408301526001600160401b0360608401511660608301526001600160401b03608084015116608083015260a0830151151560a083015292915050565b610390610a07565b61039982610aab565b6103a38282610ab3565b5050565b5f6103b0610b74565b505f5160206117285f395f51905f5290565b6103ca610bbd565b6103d35f610c3a565b565b5f805f5160206117085f395f51905f525f6103f1878787610caa565b81526020019081526020015f20905061040981610cf0565b9150505b9392505050565b5f610423878787878787610d8f565b979650505050505050565b7ff0c57e16840df040f15088dc2f81fe391c3923bec73e23a9662efc9c229c6a008054600160401b810460ff1615906001600160401b03165f811580156104725750825b90505f826001600160401b0316600114801561048d5750303b155b90508115801561049b575080155b156104b95760405163f92ee8a960e01b815260040160405180910390fd5b845467ffffffffffffffff1916600117855583156104e357845460ff60401b1916600160401b1785555b6104ec86610e2d565b831561053257845460ff60401b19168555604051600181527fc7f505b2f371ae2175ee4913f4499e1f2633a7b5936321eed1cdaeb6115181d29060200160405180910390a15b505050505050565b610542610e4e565b836001600160401b03165f0361056b5760405163392334ed60e01b815260040160405180910390fd5b6001600160401b038316158015906105955750836001600160401b0316836001600160401b031611155b156105b35760405163392334ed60e01b815260040160405180910390fd5b6001600160401b038316158015906105d4575042836001600160401b031611155b156105f25760405163716dcc3960e01b815260040160405180910390fd5b5f610601898989898989610d8f565b7f19457468657265756d205369676e6564204d6573736167653a0a3332000000005f908152601c829052603c8120919250906106729085858080601f0160208091040260200160405190810160405280939291908181526020018383808284375f92019190915250610e8592505050565b9050896001600160a01b0316816001600160a01b0316146106a657604051638baa579f60e01b815260040160405180910390fd5b5f6106b28b8b8a610caa565b90506040518060c001604052808b81526020018a8152602001896001600160a01b03168152602001886001600160401b03168152602001876001600160401b031681526020015f15158152506107125f5160206117085f395f51905f5290565b5f8381526020918252604090819020835181559183015160018301558281015160028301805460608601516001600160401b03908116600160a01b026001600160e01b03199092166001600160a01b03948516179190911790915560808501516003909401805460a0909601511515600160401b0268ffffffffffffffffff1990961694909116939093179390931790915551898216918c91908e16907fd10d525036d7d60951bf11fd079a7be25ae576aa10afe277454e435160a1aa41906107fa908e908d908d909283526001600160401b03918216602084015216604082015260600190565b60405180910390a450505061081b60015f5160206117485f395f51905f5255565b5050505050505050565b61082d610e4e565b5f610836610ec2565b90505f610844828585610caa565b5f8181525f5160206117085f395f51905f5260205260408120600281015492935091600160a01b90046001600160401b031690036108955760405163120a2e7760e01b815260040160405180910390fd5b60038101805460ff60401b1916600160401b1790556040516001600160a01b038086169187918616907f5a3e5db15dfd560619962e1ae9b45dc751c500cdf4a2e3d5b05770e4f0bcdc08905f90a45050506103a360015f5160206117485f395f51905f5255565b610904610bbd565b6001600160a01b03811661093257604051631e4fbdf760e01b81525f60048201526024015b60405180910390fd5b61093b81610c3a565b50565b6040805160c0810182525f80825260208201819052918101829052606081018290526080810182905260a08101919091525f5160206117085f395f51905f525f610989868686610caa565b815260208082019290925260409081015f20815160c0810183528154815260018201549381019390935260028101546001600160a01b038116928401929092526001600160401b03600160a01b9092048216606084015260030154908116608083015260ff600160401b90910416151560a082015290509392505050565b306001600160a01b037f0000000000000000000000000000000000000000000000000000000000000000161480610a8d57507f00000000000000000000000000000000000000000000000000000000000000006001600160a01b0316610a815f5160206117285f395f51905f52546001600160a01b031690565b6001600160a01b031614155b156103d35760405163703e46dd60e11b815260040160405180910390fd5b61093b610bbd565b816001600160a01b03166352d1902d6040518163ffffffff1660e01b8152600401602060405180830381865afa925050508015610b0d575060408051601f3d908101601f19168201909252610b0a91810190611633565b60015b610b3557604051634c9c8ce360e01b81526001600160a01b0383166004820152602401610929565b5f5160206117285f395f51905f528114610b6557604051632a87526960e21b815260048101829052602401610929565b610b6f8383610ed0565b505050565b306001600160a01b037f000000000000000000000000000000000000000000000000000000000000000016146103d35760405163703e46dd60e11b815260040160405180910390fd5b610bc5610ec2565b6001600160a01b0316610bff7f9016d09d72d40fdae2fd8ceac6b6234c7706214fd39c1cd1e609a0528c199300546001600160a01b031690565b6001600160a01b0316146103d357610c15610ec2565b60405163118cdaa760e01b81526001600160a01b039091166004820152602401610929565b7f9016d09d72d40fdae2fd8ceac6b6234c7706214fd39c1cd1e609a0528c19930080546001600160a01b031981166001600160a01b03848116918217845560405192169182907f8be0079c531659141344cd1fd0a4f28419497f9722a3daafe3b4186f6b6457e0905f90a3505050565b604080516001600160a01b03808616602083015291810184905290821660608201525f906080016040516020818303038152906040528051906020012090509392505050565b60028101545f90600160a01b90046001600160401b03168103610d1457505f919050565b6003820154600160401b900460ff1615610d2f57505f919050565b6002820154600160a01b90046001600160401b0316421015610d5257505f919050565b60038201546001600160401b031615801590610d7b575060038201546001600160401b03164210155b15610d8757505f919050565b506001919050565b604080517fcc656bc1698b3f203135b9a4c9cf32c75b874aea9a120a90f913ba9bc5d2b243602082015246918101919091523060608201526001600160a01b03808816608083015260a0820187905260c08201869052841660e08201526001600160401b0380841661010083015282166101208201525f90610140016040516020818303038152906040528051906020012090509695505050505050565b610e35610f25565b610e3e81610f6e565b610e46610f7f565b61093b610f87565b5f5160206117485f395f51905f52805460011901610e7f57604051633ee5aeb560e01b815260040160405180910390fd5b60029055565b5f5f5f5f610e938686610f97565b925092509250610ea38282610fe0565b50909150505b92915050565b60015f5160206117485f395f51905f5255565b5f610ecb611098565b905090565b610ed98261110b565b6040516001600160a01b038316907fbc7cd75a20ee27fd9adebab32041f755214dbc6bffa90cc0225b39da2e5c2d3b905f90a2805115610f1d57610b6f828261116e565b6103a36111e0565b7ff0c57e16840df040f15088dc2f81fe391c3923bec73e23a9662efc9c229c6a0054600160401b900460ff166103d357604051631afcd79f60e31b815260040160405180910390fd5b610f76610f25565b61093b816111ff565b6103d3610f25565b610f8f610f25565b6103d3611207565b5f5f5f8351604103610fce576020840151604085015160608601515f1a610fc08882858561120f565b955095509550505050610fd9565b505081515f91506002905b9250925092565b5f826003811115610ff357610ff361164a565b03610ffc575050565b60018260038111156110105761101061164a565b0361102e5760405163f645eedf60e01b815260040160405180910390fd5b60028260038111156110425761104261164a565b036110635760405163fce698f760e01b815260048101829052602401610929565b60038260038111156110775761107761164a565b036103a3576040516335e2f38360e21b815260048101829052602401610929565b5f366014336001600160a01b037f0000000000000000000000000000000000000000000000000000000000000000161480156110d45750808210155b15611103575f366110e5838561165e565b6110f092829061167d565b6110f9916116a4565b60601c9250505090565b339250505090565b806001600160a01b03163b5f0361114057604051634c9c8ce360e01b81526001600160a01b0382166004820152602401610929565b5f5160206117285f395f51905f5280546001600160a01b0319166001600160a01b0392909216919091179055565b60605f5f846001600160a01b03168460405161118a91906116f1565b5f60405180830381855af49150503d805f81146111c2576040519150601f19603f3d011682016040523d82523d5f602084013e6111c7565b606091505b50915091506111d78583836112d7565b95945050505050565b34156103d35760405163b398979f60e01b815260040160405180910390fd5b610904610f25565b610eaf610f25565b5f80807f7fffffffffffffffffffffffffffffff5d576e7357a4501ddfe92f46681b20a084111561124857505f915060039050826112cd565b604080515f808252602082018084528a905260ff891692820192909252606081018790526080810186905260019060a0016020604051602081039080840390855afa158015611299573d5f5f3e3d5ffd5b5050604051601f1901519150506001600160a01b0381166112c457505f9250600191508290506112cd565b92505f91508190505b9450945094915050565b6060826112ec576112e782611333565b61040d565b815115801561130357506001600160a01b0384163b155b1561132c57604051639996b31560e01b81526001600160a01b0385166004820152602401610929565b508061040d565b8051156113435780518082602001fd5b60405163d6bda27560e01b815260040160405180910390fd5b80356001600160a01b0381168114611372575f5ffd5b919050565b634e487b7160e01b5f52604160045260245ffd5b5f5f6040838503121561139c575f5ffd5b6113a58361135c565b915060208301356001600160401b038111156113bf575f5ffd5b8301601f810185136113cf575f5ffd5b80356001600160401b038111156113e8576113e8611377565b604051601f8201601f19908116603f011681016001600160401b038111828210171561141657611416611377565b60405281815282820160200187101561142d575f5ffd5b816020840160208301375f602083830101528093505050509250929050565b5f6020828403121561145c575f5ffd5b61040d8261135c565b5f5f5f60608486031215611477575f5ffd5b6114808461135c565b9250602084013591506114956040850161135c565b90509250925092565b602081525f82518060208401528060208501604085015e5f604082850101526040601f19601f83011684010191505092915050565b80356001600160401b0381168114611372575f5ffd5b5f5f5f5f5f5f60c087890312156114fe575f5ffd5b6115078761135c565b955060208701359450604087013593506115236060880161135c565b9250611531608088016114d3565b915061153f60a088016114d3565b90509295509295509295565b5f5f5f5f5f5f5f5f60e0898b031215611562575f5ffd5b61156b8961135c565b9750602089013596506040890135955061158760608a0161135c565b945061159560808a016114d3565b93506115a360a08a016114d3565b925060c08901356001600160401b038111156115bd575f5ffd5b8901601f81018b136115cd575f5ffd5b80356001600160401b038111156115e2575f5ffd5b8b60208284010111156115f3575f5ffd5b989b979a50959850939692959194602001935050565b5f5f6040838503121561161a575f5ffd5b8235915061162a6020840161135c565b90509250929050565b5f60208284031215611643575f5ffd5b5051919050565b634e487b7160e01b5f52602160045260245ffd5b81810381811115610ea957634e487b7160e01b5f52601160045260245ffd5b5f5f8585111561168b575f5ffd5b83861115611697575f5ffd5b5050820193919092039150565b80356bffffffffffffffffffffffff1981169060148410156116ea576bffffffffffffffffffffffff196bffffffffffffffffffffffff198560140360031b1b82161691505b5092915050565b5f82518060208501845e5f92019182525091905056feb1f5a8c6e0d2f4b6a8c0e2d4f6a8c0e2d4f6a8c0e2d4f6a8c0e2d4f6a8c0ee00360894a13ba1a3210667c828492db98dca3e2076cc3735a920a3ca505d382bbc9b779b17422d0df92223018b32b4d1fa46e071723d6817e2486d003becc55f00a26469706673582212200630e7470ef40970638217553bdc5568c8a4f50288367e05d5ff4c76ad608ea664736f6c634300081c0033","linkReferences":{}},"methodIdentifiers":{"UPGRADE_INTERFACE_VERSION()":"ad3cb1cc","attestationOf(address,bytes32,address)":"fadc0e82","commit(address,bytes32,bytes32,address,uint64,uint64,bytes)":"c7dffff0","digest(address,bytes32,bytes32,address,uint64,uint64)":"bd3665a9","hasValid(address,bytes32,address)":"7df51ed7","initialize(address)":"c4d66de8","isTrustedForwarder(address)":"572b6c05","owner()":"8da5cb5b","proxiableUUID()":"52d1902d","renounceOwnership()":"715018a6","revoke(bytes32,address)":"efd8871a","transferOwnership(address)":"f2fde38b","trustedForwarder()":"7da0a877","upgradeToAndCall(address,bytes)":"4f1ef286"},"storageLayout":{"storage":[],"types":{}},"id":8}