{"abi":[{"type":"function","name":"getEncryptedKey","inputs":[{"name":"jobId","type":"bytes32","internalType":"bytes32"}],"outputs":[{"name":"","type":"uint256","internalType":"euint128"},{"name":"","type":"uint256","internalType":"euint128"}],"stateMutability":"view"},{"type":"function","name":"storeKey","inputs":[{"name":"jobId","type":"bytes32","internalType":"bytes32"},{"name":"encHigh","type":"tuple","internalType":"struct InEuint128","components":[{"name":"ctHash","type":"uint256","internalType":"uint256"},{"name":"securityZone","type":"uint8","internalType":"uint8"},{"name":"utype","type":"uint8","internalType":"uint8"},{"name":"signature","type":"bytes","internalType":"bytes"}]},{"name":"encLow","type":"tuple","internalType":"struct InEuint128","components":[{"name":"ctHash","type":"uint256","internalType":"uint256"},{"name":"securityZone","type":"uint8","internalType":"uint8"},{"name":"utype","type":"uint8","internalType":"uint8"},{"name":"signature","type":"bytes","internalType":"bytes"}]},{"name":"allowedNodes","type":"address[]","internalType":"address[]"}],"outputs":[],"stateMutability":"nonpayable"},{"type":"event","name":"KeyStored","inputs":[{"name":"jobId","type":"bytes32","indexed":true,"internalType":"bytes32"},{"name":"submitter","type":"address","indexed":true,"internalType":"address"},{"name":"highHandle","type":"uint256","indexed":false,"internalType":"uint256"},{"name":"lowHandle","type":"uint256","indexed":false,"internalType":"uint256"},{"name":"allowedNodes","type":"address[]","indexed":false,"internalType":"address[]"}],"anonymous":false},{"type":"error","name":"InvalidEncryptedInput","inputs":[{"name":"got","type":"uint8","internalType":"uint8"},{"name":"expected","type":"uint8","internalType":"uint8"}]}],"bytecode":{"object":"0x6080604052348015600e575f5ffd5b506107298061001c5f395ff3fe608060405234801561000f575f5ffd5b5060043610610034575f3560e01c8063533688bb14610038578063e6e5897914610078575b5f5ffd5b61005f610046366004610388565b5f90815260208190526040902080546001909101549091565b6040805192835260208301919091520160405180910390f35b61008b6100863660046103b5565b61008d565b005b5f61009f61009a86610504565b61013a565b90505f6100ae61009a86610504565b90506100bb8285856101da565b6100c68185856101da565b60408051808201825283815260208082018481525f8b81529182905290839020915182555160019091015551339088907f76f33e715b6908161adf103169752d67d49e46d8d72767a86553e51a0f75a1a59061012990869086908a908a906105e3565b60405180910390a350505050505050565b60408101515f9060069060ff16811461017d5760408084015190516367cf307160e01b815260ff9182166004820152908216602482015260440160405180910390fd5b60408051608080820183525f808352602080840182905283850191909152606092830183905283519182018452865182528087015160ff169082015260069281019290925280850151908201526101d39061022b565b9392505050565b6101e3836102ac565b5f5b818110156102255761021d848484848181106102035761020361063d565b90506020020160208101906102189190610651565b610315565b6001016101e5565b50505050565b6040516313fce3b160e11b81525f9073ea30c4b8b44078bbf8a6ef5b9f1ec1626c7848d9906327f9c76290610266908590339060040161066a565b6020604051808303815f875af1158015610282573d5f5f3e3d5ffd5b505050506040513d601f19601f820116820180604052508101906102a691906106dc565b92915050565b604051631974142760e21b81526004810182905230602482015273ea30c4b8b44078bbf8a6ef5b9f1ec1626c7848d9906365d0509c906044015f604051808303815f87803b1580156102fc575f5ffd5b505af115801561030e573d5f5f3e3d5ffd5b5050505050565b604051631974142760e21b8152600481018390526001600160a01b038216602482015273ea30c4b8b44078bbf8a6ef5b9f1ec1626c7848d9906365d0509c906044015f604051808303815f87803b15801561036e575f5ffd5b505af1158015610380573d5f5f3e3d5ffd5b505050505050565b5f60208284031215610398575f5ffd5b5035919050565b5f608082840312156103af575f5ffd5b50919050565b5f5f5f5f5f608086880312156103c9575f5ffd5b85359450602086013567ffffffffffffffff8111156103e6575f5ffd5b6103f28882890161039f565b945050604086013567ffffffffffffffff81111561040e575f5ffd5b61041a8882890161039f565b935050606086013567ffffffffffffffff811115610436575f5ffd5b8601601f81018813610446575f5ffd5b803567ffffffffffffffff81111561045c575f5ffd5b8860208260051b8401011115610470575f5ffd5b959894975092955050506020019190565b634e487b7160e01b5f52604160045260245ffd5b6040516080810167ffffffffffffffff811182821017156104b8576104b8610481565b60405290565b604051601f8201601f1916810167ffffffffffffffff811182821017156104e7576104e7610481565b604052919050565b803560ff811681146104ff575f5ffd5b919050565b5f60808236031215610514575f5ffd5b61051c610495565b8235815261052c602084016104ef565b602082015261053d604084016104ef565b6040820152606083013567ffffffffffffffff81111561055b575f5ffd5b830136601f82011261056b575f5ffd5b803567ffffffffffffffff81111561058557610585610481565b610598601f8201601f19166020016104be565b8181523660208385010111156105ac575f5ffd5b816020840160208301375f9181016020019190915260608301525092915050565b80356001600160a01b03811681146104ff575f5ffd5b8481526020810184905260606040820181905281018290525f8360808301825b85811015610631576001600160a01b0361061c846105cd565b16825260209283019290910190600101610603565b50979650505050505050565b634e487b7160e01b5f52603260045260245ffd5b5f60208284031215610661575f5ffd5b6101d3826105cd565b604081528251604082015260ff602084015116606082015260ff60408401511660808201525f6060840151608060a084015280518060c0850152806020830160e086015e5f60e0828601015260e0601f19601f830116850101925050506101d360208301846001600160a01b03169052565b5f602082840312156106ec575f5ffd5b505191905056fea26469706673582212206356e2403feb5db3a420402ab9c81f25995183ae706dc8b2a15635fb287d960a64736f6c634300081c0033","linkReferences":{}},"methodIdentifiers":{"getEncryptedKey(bytes32)":"533688bb","storeKey(bytes32,(uint256,uint8,uint8,bytes),(uint256,uint8,uint8,bytes),address[])":"e6e58979"},"storageLayout":{"storage":[{"astId":18,"contract":"contracts/core/PromptKeyStore.sol:PromptKeyStore","label":"_jobKeys","offset":0,"slot":"0","type":"t_mapping(t_bytes32,t_struct(StoredKey)13_storage)"}],"types":{"t_bytes32":{"encoding":"inplace","label":"bytes32","numberOfBytes":"32"},"t_mapping(t_bytes32,t_struct(StoredKey)13_storage)":{"encoding":"mapping","key":"t_bytes32","label":"mapping(bytes32 => struct PromptKeyStore.StoredKey)","numberOfBytes":"32","value":"t_struct(StoredKey)13_storage"},"t_struct(StoredKey)13_storage":{"encoding":"inplace","label":"struct PromptKeyStore.StoredKey","numberOfBytes":"64","members":[{"astId":9,"contract":"contracts/core/PromptKeyStore.sol:PromptKeyStore","label":"high","offset":0,"slot":"0","type":"t_userDefinedValueType(euint128)189"},{"astId":12,"contract":"contracts/core/PromptKeyStore.sol:PromptKeyStore","label":"low","offset":0,"slot":"1","type":"t_userDefinedValueType(euint128)189"}]},"t_userDefinedValueType(euint128)189":{"encoding":"inplace","label":"euint128","numberOfBytes":"32"}}},"id":0}