{"abi":[{"type":"constructor","inputs":[{"name":"_iclServiceAddress","type":"address","internalType":"address"},{"name":"_nodeOperatorRegistryAddress","type":"address","internalType":"address"}],"stateMutability":"nonpayable"},{"type":"function","name":"commitRejection","inputs":[{"name":"taskId","type":"bytes32","internalType":"bytes32"},{"name":"leader","type":"address","internalType":"address"},{"name":"verifiers","type":"address[]","internalType":"address[]"},{"name":"modelId","type":"bytes32","internalType":"bytes32"},{"name":"reason","type":"string","internalType":"string"}],"outputs":[],"stateMutability":"nonpayable"},{"type":"function","name":"commitResult","inputs":[{"name":"taskId","type":"bytes32","internalType":"bytes32"},{"name":"resultHash","type":"bytes32","internalType":"bytes32"},{"name":"leader","type":"address","internalType":"address"},{"name":"verifiers","type":"address[]","internalType":"address[]"},{"name":"confirmCount","type":"uint8","internalType":"uint8"},{"name":"rejectCount","type":"uint8","internalType":"uint8"},{"name":"aggregatedConfidence","type":"uint8","internalType":"uint8"},{"name":"modelId","type":"bytes32","internalType":"bytes32"}],"outputs":[],"stateMutability":"nonpayable"},{"type":"function","name":"developerByTask","inputs":[{"name":"","type":"bytes32","internalType":"bytes32"}],"outputs":[{"name":"","type":"address","internalType":"address"}],"stateMutability":"view"},{"type":"function","name":"disputes","inputs":[{"name":"","type":"bytes32","internalType":"bytes32"}],"outputs":[{"name":"evidenceHash","type":"bytes32","internalType":"bytes32"},{"name":"evidenceURI","type":"string","internalType":"string"},{"name":"filedBy","type":"address","internalType":"address"},{"name":"filedAt","type":"uint256","internalType":"uint256"},{"name":"resolved","type":"bool","internalType":"bool"},{"name":"upheld","type":"bool","internalType":"bool"},{"name":"verdict","type":"uint8","internalType":"uint8"}],"stateMutability":"view"},{"type":"function","name":"getResult","inputs":[{"name":"taskId","type":"bytes32","internalType":"bytes32"}],"outputs":[{"name":"","type":"tuple","internalType":"struct IResultRegistry.InferenceResult","components":[{"name":"taskId","type":"bytes32","internalType":"bytes32"},{"name":"resultHash","type":"bytes32","internalType":"bytes32"},{"name":"leaderAddress","type":"address","internalType":"address"},{"name":"verifierAddresses","type":"address[]","internalType":"address[]"},{"name":"confirmCount","type":"uint8","internalType":"uint8"},{"name":"rejectCount","type":"uint8","internalType":"uint8"},{"name":"aggregatedConfidence","type":"uint8","internalType":"uint8"},{"name":"modelId","type":"bytes32","internalType":"bytes32"},{"name":"committedAt","type":"uint256","internalType":"uint256"},{"name":"status","type":"uint8","internalType":"uint8"},{"name":"disputeDeadline","type":"uint256","internalType":"uint256"},{"name":"coverageId","type":"bytes32","internalType":"bytes32"}]}],"stateMutability":"view"},{"type":"function","name":"iclServiceAddress","inputs":[],"outputs":[{"name":"","type":"address","internalType":"address"}],"stateMutability":"view"},{"type":"function","name":"isConditionMet","inputs":[{"name":"taskId","type":"bytes32","internalType":"bytes32"},{"name":"minConfidence","type":"uint8","internalType":"uint8"},{"name":"minQuorum","type":"uint8","internalType":"uint8"}],"outputs":[{"name":"","type":"bool","internalType":"bool"}],"stateMutability":"view"},{"type":"function","name":"nodeOperatorRegistryAddress","inputs":[],"outputs":[{"name":"","type":"address","internalType":"address"}],"stateMutability":"view"},{"type":"function","name":"owner","inputs":[],"outputs":[{"name":"","type":"address","internalType":"address"}],"stateMutability":"view"},{"type":"function","name":"registerDeveloper","inputs":[{"name":"taskId","type":"bytes32","internalType":"bytes32"},{"name":"developer","type":"address","internalType":"address"}],"outputs":[],"stateMutability":"nonpayable"},{"type":"function","name":"renounceOwnership","inputs":[],"outputs":[],"stateMutability":"nonpayable"},{"type":"function","name":"resolveDispute","inputs":[{"name":"taskId","type":"bytes32","internalType":"bytes32"},{"name":"upheld","type":"bool","internalType":"bool"},{"name":"verdict","type":"uint8","internalType":"uint8"}],"outputs":[],"stateMutability":"nonpayable"},{"type":"function","name":"results","inputs":[{"name":"","type":"bytes32","internalType":"bytes32"}],"outputs":[{"name":"taskId","type":"bytes32","internalType":"bytes32"},{"name":"resultHash","type":"bytes32","internalType":"bytes32"},{"name":"leaderAddress","type":"address","internalType":"address"},{"name":"confirmCount","type":"uint8","internalType":"uint8"},{"name":"rejectCount","type":"uint8","internalType":"uint8"},{"name":"aggregatedConfidence","type":"uint8","internalType":"uint8"},{"name":"modelId","type":"bytes32","internalType":"bytes32"},{"name":"committedAt","type":"uint256","internalType":"uint256"},{"name":"status","type":"uint8","internalType":"uint8"},{"name":"disputeDeadline","type":"uint256","internalType":"uint256"},{"name":"coverageId","type":"bytes32","internalType":"bytes32"}],"stateMutability":"view"},{"type":"function","name":"submitDispute","inputs":[{"name":"taskId","type":"bytes32","internalType":"bytes32"},{"name":"evidenceHash","type":"bytes32","internalType":"bytes32"},{"name":"evidenceURI","type":"string","internalType":"string"}],"outputs":[],"stateMutability":"nonpayable"},{"type":"function","name":"taskExists","inputs":[{"name":"","type":"bytes32","internalType":"bytes32"}],"outputs":[{"name":"","type":"bool","internalType":"bool"}],"stateMutability":"view"},{"type":"function","name":"transferOwnership","inputs":[{"name":"newOwner","type":"address","internalType":"address"}],"outputs":[],"stateMutability":"nonpayable"},{"type":"event","name":"DisputeResolved","inputs":[{"name":"taskId","type":"bytes32","indexed":true,"internalType":"bytes32"},{"name":"upheld","type":"bool","indexed":false,"internalType":"bool"},{"name":"verdict","type":"uint8","indexed":false,"internalType":"uint8"}],"anonymous":false},{"type":"event","name":"DisputeSubmitted","inputs":[{"name":"taskId","type":"bytes32","indexed":true,"internalType":"bytes32"},{"name":"developer","type":"address","indexed":true,"internalType":"address"},{"name":"evidenceHash","type":"bytes32","indexed":false,"internalType":"bytes32"}],"anonymous":false},{"type":"event","name":"OwnershipTransferred","inputs":[{"name":"previousOwner","type":"address","indexed":true,"internalType":"address"},{"name":"newOwner","type":"address","indexed":true,"internalType":"address"}],"anonymous":false},{"type":"event","name":"ResultCommitted","inputs":[{"name":"taskId","type":"bytes32","indexed":true,"internalType":"bytes32"},{"name":"resultHash","type":"bytes32","indexed":false,"internalType":"bytes32"},{"name":"leader","type":"address","indexed":false,"internalType":"address"},{"name":"confirms","type":"uint8","indexed":false,"internalType":"uint8"},{"name":"confidence","type":"uint8","indexed":false,"internalType":"uint8"}],"anonymous":false},{"type":"event","name":"ResultRejected","inputs":[{"name":"taskId","type":"bytes32","indexed":true,"internalType":"bytes32"},{"name":"leader","type":"address","indexed":false,"internalType":"address"},{"name":"reason","type":"string","indexed":false,"internalType":"string"}],"anonymous":false},{"type":"error","name":"OwnableInvalidOwner","inputs":[{"name":"owner","type":"address","internalType":"address"}]},{"type":"error","name":"OwnableUnauthorizedAccount","inputs":[{"name":"account","type":"address","internalType":"address"}]}],"bytecode":{"object":"0x608060405234801561000f575f5ffd5b50604051611b3f380380611b3f83398101604081905261002e9161014f565b338061005457604051631e4fbdf760e01b81525f60048201526024015b60405180910390fd5b61005d816100e5565b506001600160a01b0382166100b45760405162461bcd60e51b815260206004820152601360248201527f496e76616c69642049434c206164647265737300000000000000000000000000604482015260640161004b565b600580546001600160a01b039384166001600160a01b03199182161790915560068054929093169116179055610180565b5f80546001600160a01b038381166001600160a01b0319831681178455604051919092169283917f8be0079c531659141344cd1fd0a4f28419497f9722a3daafe3b4186f6b6457e09190a35050565b80516001600160a01b038116811461014a575f5ffd5b919050565b5f5f60408385031215610160575f5ffd5b61016983610134565b915061017760208401610134565b90509250929050565b6119b28061018d5f395ff3fe608060405234801561000f575f5ffd5b50600436106100fb575f3560e01c80637dd0e21f11610093578063b7bf356a11610063578063b7bf356a14610304578063f2fde38b14610326578063f407dd6814610339578063fd7a4c5b1461034c575f5ffd5b80637dd0e21f146102995780638da5cb5b146102c1578063add4c784146102d1578063b0c3afb4146102f1575f5ffd5b80634c6b25b1116100ce5780634c6b25b11461017957806363fc850f1461025357806367f9ade31461027e578063715018a614610291575f5ffd5b806311be1997146100ff5780631677f6d71461012e57806320df994c146101435780632c4ee4dd14610166575b5f5ffd5b61011261010d3660046112d2565b61035f565b60405161012597969594939291906112e9565b60405180910390f35b61014161013c366004611372565b610434565b005b6101566101513660046113ac565b6104de565b6040519015158152602001610125565b6101416101743660046113e5565b610659565b6101ef6101873660046112d2565b600160208190525f918252604090912080549181015460028201546004830154600584015460068501546007860154600887015460099097015495966001600160a01b039095169560ff8086169661010087048216966201000090048216959493909116918b565b604080519b8c5260208c019a909a526001600160a01b03909816988a019890985260ff95861660608a0152938516608089015291841660a088015260c087015260e08601521661010084015261012083019190915261014082015261016001610125565b600654610266906001600160a01b031681565b6040516001600160a01b039091168152602001610125565b600554610266906001600160a01b031681565b610141610890565b6102666102a73660046112d2565b60046020525f90815260409020546001600160a01b031681565b5f546001600160a01b0316610266565b6102e46102df3660046112d2565b6108a3565b6040516101259190611450565b6101416102ff366004611569565b610a35565b6101566103123660046112d2565b60036020525f908152604090205460ff1681565b610141610334366004611608565b610cda565b61014161034736600461165f565b610d17565b61014161035a3660046116ae565b611021565b60026020525f90815260409020805460018201805491929161038090611740565b80601f01602080910402602001604051908101604052809291908181526020018280546103ac90611740565b80156103f75780601f106103ce576101008083540402835291602001916103f7565b820191905f5260205f20905b8154815290600101906020018083116103da57829003601f168201915b5050506002840154600385015460049095015493946001600160a01b039091169390925060ff808216925061010082048116916201000090041687565b6005546001600160a01b031633146104675760405162461bcd60e51b815260040161045e90611778565b60405180910390fd5b6001600160a01b0381166104b15760405162461bcd60e51b815260206004820152601160248201527024b73b30b634b2103232bb32b637b832b960791b604482015260640161045e565b5f9182526004602052604090912080546001600160a01b0319166001600160a01b03909216919091179055565b5f8381526003602052604081205460ff1661050b5760405162461bcd60e51b815260040161045e906117af565b5f84815260016020818152604080842081516101808101835281548152938101548484015260028101546001600160a01b03168483015260038101805483518186028101860190945280845291936060860193929083018282801561059757602002820191905f5260205f20905b81546001600160a01b03168152600190910190602001808311610579575b5050509183525050600482015460ff808216602084015261010080830482166040850152620100009092048116606084015260058401546080840152600684015460a08401526007840154811660c0840152600884015460e084015260099093015491015261012082015191925016600114610616575f915050610652565b5f8160a00151826080015161062b91906117f0565b90508460ff168260c0015160ff161015801561064d57508360ff168160ff1610155b925050505b9392505050565b6005546001600160a01b031633146106835760405162461bcd60e51b815260040161045e90611778565b5f8381526003602052604090205460ff166106b05760405162461bcd60e51b815260040161045e906117af565b60648160ff1611156106fa5760405162461bcd60e51b81526020600482015260136024820152720accae4c8d2c6e840caf0c6cacac8e640dac2f606b1b604482015260640161045e565b5f838152600160205260409020600781015460ff166003146107555760405162461bcd60e51b815260206004820152601460248201527315185cdac81a5cc81b9bdd08191a5cdc1d5d195960621b604482015260640161045e565b5f84815260026020526040812060038101549091036107aa5760405162461bcd60e51b8152602060048201526011602482015270111a5cdc1d5d19481b9bdd08199bdd5b99607a1b604482015260640161045e565b600481015460ff16156107ff5760405162461bcd60e51b815260206004820152601860248201527f4469737075746520616c7265616479207265736f6c7665640000000000000000604482015260640161045e565b6004808201805460ff8616620100000262ff0000198815156101000261ffff19909316929092176001179190911617905560078301805460ff1916909117905560405185907fe56e26f8b4fcedb6041d27993d386e28b1b1d9286ce399a06b6bee65608af978906108819087908790911515825260ff16602082015260400190565b60405180910390a25050505050565b6108986111e2565b6108a15f61120e565b565b6109116040518061018001604052805f81526020015f81526020015f6001600160a01b03168152602001606081526020015f60ff1681526020015f60ff1681526020015f60ff1681526020015f81526020015f81526020015f60ff1681526020015f81526020015f81525090565b5f8281526003602052604090205460ff1661093e5760405162461bcd60e51b815260040161045e906117af565b5f8281526001602081815260409283902083516101808101855281548152928101548383015260028101546001600160a01b0316838501526003810180548551818502810185019096528086529394919360608601938301828280156109cb57602002820191905f5260205f20905b81546001600160a01b031681526001909101906020018083116109ad575b5050509183525050600482015460ff808216602084015261010080830482166040850152620100009092048116606084015260058401546080840152600684015460a084015260078401541660c0830152600883015460e083015260099092015491015292915050565b6005546001600160a01b03163314610a5f5760405162461bcd60e51b815260040161045e90611778565b5f8981526003602052604090205460ff1615610ab35760405162461bcd60e51b81526020600482015260136024820152725461736b20616c72656164792065786973747360681b604482015260640161045e565b6001600160a01b038716610afa5760405162461bcd60e51b815260206004820152600e60248201526d24b73b30b634b2103632b0b232b960911b604482015260640161045e565b84610b0584866117f0565b60ff1614610b555760405162461bcd60e51b815260206004820152601860248201527f566572696669657220636f756e7473206d69736d617463680000000000000000604482015260640161045e565b60648260ff161115610ba25760405162461bcd60e51b8152602060048201526016602482015275086dedcccd2c8cadcc6ca40caf0c6cacac8e640dac2f60531b604482015260640161045e565b5f8981526001602081905260409091208a81559081018990556002810180546001600160a01b0319166001600160a01b038a16179055610be660038201888861125d565b5060048101805460ff858116620100000262ff0000198883166101000261ffff19909416928a1692909217929092171617905560058101829055426006820181905560078201805460ff19166001179055610c45906203f4809061180f565b60088201555f600982018190558a81526003602052604090819020805460ff19166001179055518a907f8fc8491a12226aa2a5cb80b31ea193b39489f584851a74fa4793fe7662ae0feb90610cc6908c908c908a9089909384526001600160a01b0392909216602084015260ff908116604084015216606082015260800190565b60405180910390a250505050505050505050565b610ce26111e2565b6001600160a01b038116610d0b57604051631e4fbdf760e01b81525f600482015260240161045e565b610d148161120e565b50565b5f8481526003602052604090205460ff16610d445760405162461bcd60e51b815260040161045e906117af565b5f8481526001602081905260409091206007810154909160ff90911614610da65760405162461bcd60e51b81526020600482015260166024820152755461736b206973206e6f742064697370757461626c6560501b604482015260640161045e565b8060080154421115610df25760405162461bcd60e51b8152602060048201526015602482015274111a5cdc1d5d19481dda5b991bddc818db1bdcd959605a1b604482015260640161045e565b5f858152600460205260409020546001600160a01b03163314610e625760405162461bcd60e51b815260206004820152602260248201527f43616c6c6572206973206e6f74207265676973746572656420646576656c6f7060448201526132b960f11b606482015260840161045e565b5f8581526002602052604090206003015415610ec05760405162461bcd60e51b815260206004820152601960248201527f4469737075746520616c7265616479207375626d697474656400000000000000604482015260640161045e565b60078101805460ff191660031790556040805160e08101825285815281516020601f86018190048102820181019093528481529091808301919086908690819084018382808284375f92018290525093855250503360208085019190915242604080860191909152606085018490526080850184905260a090940183905289835260028152929091208351815591830151600183019150610f619082611882565b506040828101516002830180546001600160a01b0319166001600160a01b039092169190911790556060830151600383015560808301516004909201805460a085015160c09095015161ffff1990911693151561ff00191693909317610100941515949094029390931762ff000019166201000060ff909316929092029190911790915551848152339086907ffaf33e307ad1ab020825c16f9a6dad867d5539f271a16a14899524f34f320b299060200160405180910390a35050505050565b6005546001600160a01b0316331461104b5760405162461bcd60e51b815260040161045e90611778565b5f8781526003602052604090205460ff161561109f5760405162461bcd60e51b81526020600482015260136024820152725461736b20616c72656164792065786973747360681b604482015260640161045e565b6001600160a01b0386166110e65760405162461bcd60e51b815260206004820152600e60248201526d24b73b30b634b2103632b0b232b960911b604482015260640161045e565b5f8781526001602081905260408220898155908101919091556002810180546001600160a01b0319166001600160a01b03891617905561112a60038201878761125d565b5060048101805462ff00001960ff8816610100021662ffffff1990911617905560058101849055426006820181905560078201805460ff19166002179055611176906203f4809061180f565b60088201555f600982018190558881526003602052604090819020805460ff191660011790555188907f23dd210d7910665add14adaf68c23d199a2f0c843dc4ec811a4bbc8f60aac4c0906111d0908a908790879061193d565b60405180910390a25050505050505050565b5f546001600160a01b031633146108a15760405163118cdaa760e01b815233600482015260240161045e565b5f80546001600160a01b038381166001600160a01b0319831681178455604051919092169283917f8be0079c531659141344cd1fd0a4f28419497f9722a3daafe3b4186f6b6457e09190a35050565b828054828255905f5260205f209081019282156112ae579160200282015b828111156112ae5781546001600160a01b0319166001600160a01b0384351617825560209092019160019091019061127b565b506112ba9291506112be565b5090565b5b808211156112ba575f81556001016112bf565b5f602082840312156112e2575f5ffd5b5035919050565b87815260e060208201525f87518060e08401528060208a0161010085015e5f6101008285018101919091526001600160a01b03989098166040840152606083019690965250921515608084015290151560a083015260ff1660c0820152601f909101601f1916010192915050565b80356001600160a01b038116811461136d575f5ffd5b919050565b5f5f60408385031215611383575f5ffd5b8235915061139360208401611357565b90509250929050565b803560ff8116811461136d575f5ffd5b5f5f5f606084860312156113be575f5ffd5b833592506113ce6020850161139c565b91506113dc6040850161139c565b90509250925092565b5f5f5f606084860312156113f7575f5ffd5b83359250602084013580151581146113ce575f5ffd5b5f8151808452602084019350602083015f5b828110156114465781516001600160a01b031686526020958601959091019060010161141f565b5093949350505050565b6020815281516020820152602082015160408201525f604083015161148060608401826001600160a01b03169052565b506060830151610180608084015261149c6101a084018261140d565b905060808401516114b260a085018260ff169052565b5060a084015160ff811660c08501525060c084015160ff811660e08501525060e08401516101008401526101008401516101208401526101208401516114fe61014085018260ff169052565b506101408401516101608401526101608401516101808401528091505092915050565b5f5f83601f840112611531575f5ffd5b50813567ffffffffffffffff811115611548575f5ffd5b6020830191508360208260051b8501011115611562575f5ffd5b9250929050565b5f5f5f5f5f5f5f5f5f6101008a8c031215611582575f5ffd5b8935985060208a0135975061159960408b01611357565b965060608a013567ffffffffffffffff8111156115b4575f5ffd5b6115c08c828d01611521565b90975095506115d3905060808b0161139c565b93506115e160a08b0161139c565b92506115ef60c08b0161139c565b989b979a50959894979396929550909360e00135919050565b5f60208284031215611618575f5ffd5b61065282611357565b5f5f83601f840112611631575f5ffd5b50813567ffffffffffffffff811115611648575f5ffd5b602083019150836020828501011115611562575f5ffd5b5f5f5f5f60608587031215611672575f5ffd5b8435935060208501359250604085013567ffffffffffffffff811115611696575f5ffd5b6116a287828801611621565b95989497509550505050565b5f5f5f5f5f5f5f60a0888a0312156116c4575f5ffd5b873596506116d460208901611357565b9550604088013567ffffffffffffffff8111156116ef575f5ffd5b6116fb8a828b01611521565b90965094505060608801359250608088013567ffffffffffffffff811115611721575f5ffd5b61172d8a828b01611621565b989b979a50959850939692959293505050565b600181811c9082168061175457607f821691505b60208210810361177257634e487b7160e01b5f52602260045260245ffd5b50919050565b60208082526019908201527f43616c6c6572206973206e6f742049434c207365727669636500000000000000604082015260600190565b60208082526013908201527215185cdac8191bd95cc81b9bdd08195e1a5cdd606a1b604082015260600190565b634e487b7160e01b5f52601160045260245ffd5b60ff8181168382160190811115611809576118096117dc565b92915050565b80820180821115611809576118096117dc565b634e487b7160e01b5f52604160045260245ffd5b601f82111561187d57805f5260205f20601f840160051c8101602085101561185b5750805b601f840160051c820191505b8181101561187a575f8155600101611867565b50505b505050565b815167ffffffffffffffff81111561189c5761189c611822565b6118b0816118aa8454611740565b84611836565b6020601f8211600181146118e2575f83156118cb5750848201515b5f19600385901b1c1916600184901b17845561187a565b5f84815260208120601f198516915b8281101561191157878501518255602094850194600190920191016118f1565b508482101561192e57868401515f19600387901b60f8161c191681555b50505050600190811b01905550565b6001600160a01b03841681526040602082018190528101829052818360608301375f818301606090810191909152601f909201601f191601019291505056fea2646970667358221220023ed5d2fa1a565426e7a7eee867a664d32d28da9f2ff22039e3e1f37404f54f64736f6c634300081c0033","linkReferences":{}},"methodIdentifiers":{"commitRejection(bytes32,address,address[],bytes32,string)":"fd7a4c5b","commitResult(bytes32,bytes32,address,address[],uint8,uint8,uint8,bytes32)":"b0c3afb4","developerByTask(bytes32)":"7dd0e21f","disputes(bytes32)":"11be1997","getResult(bytes32)":"add4c784","iclServiceAddress()":"67f9ade3","isConditionMet(bytes32,uint8,uint8)":"20df994c","nodeOperatorRegistryAddress()":"63fc850f","owner()":"8da5cb5b","registerDeveloper(bytes32,address)":"1677f6d7","renounceOwnership()":"715018a6","resolveDispute(bytes32,bool,uint8)":"2c4ee4dd","results(bytes32)":"4c6b25b1","submitDispute(bytes32,bytes32,string)":"f407dd68","taskExists(bytes32)":"b7bf356a","transferOwnership(address)":"f2fde38b"},"storageLayout":{"storage":[{"astId":34216,"contract":"contracts/plugins/resolvers/ResultRegistry.sol:ResultRegistry","label":"_owner","offset":0,"slot":"0","type":"t_address"},{"astId":7858,"contract":"contracts/plugins/resolvers/ResultRegistry.sol:ResultRegistry","label":"results","offset":0,"slot":"1","type":"t_mapping(t_bytes32,t_struct(InferenceResult)5815_storage)"},{"astId":7863,"contract":"contracts/plugins/resolvers/ResultRegistry.sol:ResultRegistry","label":"disputes","offset":0,"slot":"2","type":"t_mapping(t_bytes32,t_struct(DisputeRecord)7853_storage)"},{"astId":7867,"contract":"contracts/plugins/resolvers/ResultRegistry.sol:ResultRegistry","label":"taskExists","offset":0,"slot":"3","type":"t_mapping(t_bytes32,t_bool)"},{"astId":7871,"contract":"contracts/plugins/resolvers/ResultRegistry.sol:ResultRegistry","label":"developerByTask","offset":0,"slot":"4","type":"t_mapping(t_bytes32,t_address)"},{"astId":7873,"contract":"contracts/plugins/resolvers/ResultRegistry.sol:ResultRegistry","label":"iclServiceAddress","offset":0,"slot":"5","type":"t_address"},{"astId":7875,"contract":"contracts/plugins/resolvers/ResultRegistry.sol:ResultRegistry","label":"nodeOperatorRegistryAddress","offset":0,"slot":"6","type":"t_address"}],"types":{"t_address":{"encoding":"inplace","label":"address","numberOfBytes":"20"},"t_array(t_address)dyn_storage":{"encoding":"dynamic_array","label":"address[]","numberOfBytes":"32","base":"t_address"},"t_bool":{"encoding":"inplace","label":"bool","numberOfBytes":"1"},"t_bytes32":{"encoding":"inplace","label":"bytes32","numberOfBytes":"32"},"t_mapping(t_bytes32,t_address)":{"encoding":"mapping","key":"t_bytes32","label":"mapping(bytes32 => address)","numberOfBytes":"32","value":"t_address"},"t_mapping(t_bytes32,t_bool)":{"encoding":"mapping","key":"t_bytes32","label":"mapping(bytes32 => bool)","numberOfBytes":"32","value":"t_bool"},"t_mapping(t_bytes32,t_struct(DisputeRecord)7853_storage)":{"encoding":"mapping","key":"t_bytes32","label":"mapping(bytes32 => struct ResultRegistry.DisputeRecord)","numberOfBytes":"32","value":"t_struct(DisputeRecord)7853_storage"},"t_mapping(t_bytes32,t_struct(InferenceResult)5815_storage)":{"encoding":"mapping","key":"t_bytes32","label":"mapping(bytes32 => struct IResultRegistry.InferenceResult)","numberOfBytes":"32","value":"t_struct(InferenceResult)5815_storage"},"t_string_storage":{"encoding":"bytes","label":"string","numberOfBytes":"32"},"t_struct(DisputeRecord)7853_storage":{"encoding":"inplace","label":"struct ResultRegistry.DisputeRecord","numberOfBytes":"160","members":[{"astId":7840,"contract":"contracts/plugins/resolvers/ResultRegistry.sol:ResultRegistry","label":"evidenceHash","offset":0,"slot":"0","type":"t_bytes32"},{"astId":7842,"contract":"contracts/plugins/resolvers/ResultRegistry.sol:ResultRegistry","label":"evidenceURI","offset":0,"slot":"1","type":"t_string_storage"},{"astId":7844,"contract":"contracts/plugins/resolvers/ResultRegistry.sol:ResultRegistry","label":"filedBy","offset":0,"slot":"2","type":"t_address"},{"astId":7846,"contract":"contracts/plugins/resolvers/ResultRegistry.sol:ResultRegistry","label":"filedAt","offset":0,"slot":"3","type":"t_uint256"},{"astId":7848,"contract":"contracts/plugins/resolvers/ResultRegistry.sol:ResultRegistry","label":"resolved","offset":0,"slot":"4","type":"t_bool"},{"astId":7850,"contract":"contracts/plugins/resolvers/ResultRegistry.sol:ResultRegistry","label":"upheld","offset":1,"slot":"4","type":"t_bool"},{"astId":7852,"contract":"contracts/plugins/resolvers/ResultRegistry.sol:ResultRegistry","label":"verdict","offset":2,"slot":"4","type":"t_uint8"}]},"t_struct(InferenceResult)5815_storage":{"encoding":"inplace","label":"struct IResultRegistry.InferenceResult","numberOfBytes":"320","members":[{"astId":5791,"contract":"contracts/plugins/resolvers/ResultRegistry.sol:ResultRegistry","label":"taskId","offset":0,"slot":"0","type":"t_bytes32"},{"astId":5793,"contract":"contracts/plugins/resolvers/ResultRegistry.sol:ResultRegistry","label":"resultHash","offset":0,"slot":"1","type":"t_bytes32"},{"astId":5795,"contract":"contracts/plugins/resolvers/ResultRegistry.sol:ResultRegistry","label":"leaderAddress","offset":0,"slot":"2","type":"t_address"},{"astId":5798,"contract":"contracts/plugins/resolvers/ResultRegistry.sol:ResultRegistry","label":"verifierAddresses","offset":0,"slot":"3","type":"t_array(t_address)dyn_storage"},{"astId":5800,"contract":"contracts/plugins/resolvers/ResultRegistry.sol:ResultRegistry","label":"confirmCount","offset":0,"slot":"4","type":"t_uint8"},{"astId":5802,"contract":"contracts/plugins/resolvers/ResultRegistry.sol:ResultRegistry","label":"rejectCount","offset":1,"slot":"4","type":"t_uint8"},{"astId":5804,"contract":"contracts/plugins/resolvers/ResultRegistry.sol:ResultRegistry","label":"aggregatedConfidence","offset":2,"slot":"4","type":"t_uint8"},{"astId":5806,"contract":"contracts/plugins/resolvers/ResultRegistry.sol:ResultRegistry","label":"modelId","offset":0,"slot":"5","type":"t_bytes32"},{"astId":5808,"contract":"contracts/plugins/resolvers/ResultRegistry.sol:ResultRegistry","label":"committedAt","offset":0,"slot":"6","type":"t_uint256"},{"astId":5810,"contract":"contracts/plugins/resolvers/ResultRegistry.sol:ResultRegistry","label":"status","offset":0,"slot":"7","type":"t_uint8"},{"astId":5812,"contract":"contracts/plugins/resolvers/ResultRegistry.sol:ResultRegistry","label":"disputeDeadline","offset":0,"slot":"8","type":"t_uint256"},{"astId":5814,"contract":"contracts/plugins/resolvers/ResultRegistry.sol:ResultRegistry","label":"coverageId","offset":0,"slot":"9","type":"t_bytes32"}]},"t_uint256":{"encoding":"inplace","label":"uint256","numberOfBytes":"32"},"t_uint8":{"encoding":"inplace","label":"uint8","numberOfBytes":"1"}}},"id":39}