{"abi":[{"type":"constructor","inputs":[{"name":"_blindToken","type":"address","internalType":"address"},{"name":"_owner","type":"address","internalType":"address"}],"stateMutability":"nonpayable"},{"type":"function","name":"MAX_CONSECUTIVE_FAILURES","inputs":[],"outputs":[{"name":"","type":"uint256","internalType":"uint256"}],"stateMutability":"view"},{"type":"function","name":"MIN_STAKE","inputs":[],"outputs":[{"name":"","type":"uint256","internalType":"uint256"}],"stateMutability":"view"},{"type":"function","name":"UNBONDING_PERIOD","inputs":[],"outputs":[{"name":"","type":"uint256","internalType":"uint256"}],"stateMutability":"view"},{"type":"function","name":"authorizedSlasher","inputs":[{"name":"","type":"address","internalType":"address"}],"outputs":[{"name":"","type":"bool","internalType":"bool"}],"stateMutability":"view"},{"type":"function","name":"blindToken","inputs":[],"outputs":[{"name":"","type":"address","internalType":"contract IERC20"}],"stateMutability":"view"},{"type":"function","name":"canCompleteUnstake","inputs":[{"name":"node","type":"address","internalType":"address"}],"outputs":[{"name":"","type":"bool","internalType":"bool"}],"stateMutability":"view"},{"type":"function","name":"completeUnstake","inputs":[],"outputs":[],"stateMutability":"nonpayable"},{"type":"function","name":"getStakeInfo","inputs":[{"name":"node","type":"address","internalType":"address"}],"outputs":[{"name":"","type":"tuple","internalType":"struct BlindferenceStaking.StakeInfo","components":[{"name":"staked","type":"uint256","internalType":"uint256"},{"name":"unbonding","type":"uint256","internalType":"uint256"},{"name":"unbondingAvailableAt","type":"uint256","internalType":"uint256"},{"name":"consecutiveFailures","type":"uint256","internalType":"uint256"},{"name":"active","type":"bool","internalType":"bool"}]}],"stateMutability":"view"},{"type":"function","name":"initiateUnstake","inputs":[],"outputs":[],"stateMutability":"nonpayable"},{"type":"function","name":"isActive","inputs":[{"name":"node","type":"address","internalType":"address"}],"outputs":[{"name":"","type":"bool","internalType":"bool"}],"stateMutability":"view"},{"type":"function","name":"owner","inputs":[],"outputs":[{"name":"","type":"address","internalType":"address"}],"stateMutability":"view"},{"type":"function","name":"recordFailure","inputs":[{"name":"node","type":"address","internalType":"address"}],"outputs":[],"stateMutability":"nonpayable"},{"type":"function","name":"renounceOwnership","inputs":[],"outputs":[],"stateMutability":"nonpayable"},{"type":"function","name":"resetFailures","inputs":[{"name":"node","type":"address","internalType":"address"}],"outputs":[],"stateMutability":"nonpayable"},{"type":"function","name":"setSlasher","inputs":[{"name":"slasher","type":"address","internalType":"address"},{"name":"authorized","type":"bool","internalType":"bool"}],"outputs":[],"stateMutability":"nonpayable"},{"type":"function","name":"slash","inputs":[{"name":"node","type":"address","internalType":"address"},{"name":"amount","type":"uint256","internalType":"uint256"},{"name":"reason","type":"string","internalType":"string"}],"outputs":[],"stateMutability":"nonpayable"},{"type":"function","name":"stake","inputs":[{"name":"amount","type":"uint256","internalType":"uint256"}],"outputs":[],"stateMutability":"nonpayable"},{"type":"function","name":"stakes","inputs":[{"name":"","type":"address","internalType":"address"}],"outputs":[{"name":"staked","type":"uint256","internalType":"uint256"},{"name":"unbonding","type":"uint256","internalType":"uint256"},{"name":"unbondingAvailableAt","type":"uint256","internalType":"uint256"},{"name":"consecutiveFailures","type":"uint256","internalType":"uint256"},{"name":"active","type":"bool","internalType":"bool"}],"stateMutability":"view"},{"type":"function","name":"totalStaked","inputs":[],"outputs":[{"name":"","type":"uint256","internalType":"uint256"}],"stateMutability":"view"},{"type":"function","name":"transferOwnership","inputs":[{"name":"newOwner","type":"address","internalType":"address"}],"outputs":[],"stateMutability":"nonpayable"},{"type":"event","name":"ConsecutiveFailuresUpdated","inputs":[{"name":"node","type":"address","indexed":true,"internalType":"address"},{"name":"count","type":"uint256","indexed":false,"internalType":"uint256"}],"anonymous":false},{"type":"event","name":"OwnershipTransferred","inputs":[{"name":"previousOwner","type":"address","indexed":true,"internalType":"address"},{"name":"newOwner","type":"address","indexed":true,"internalType":"address"}],"anonymous":false},{"type":"event","name":"Slashed","inputs":[{"name":"node","type":"address","indexed":true,"internalType":"address"},{"name":"amount","type":"uint256","indexed":false,"internalType":"uint256"},{"name":"reason","type":"string","indexed":false,"internalType":"string"}],"anonymous":false},{"type":"event","name":"SlasherSet","inputs":[{"name":"slasher","type":"address","indexed":true,"internalType":"address"},{"name":"authorized","type":"bool","indexed":false,"internalType":"bool"}],"anonymous":false},{"type":"event","name":"Staked","inputs":[{"name":"node","type":"address","indexed":true,"internalType":"address"},{"name":"amount","type":"uint256","indexed":false,"internalType":"uint256"},{"name":"totalStaked","type":"uint256","indexed":false,"internalType":"uint256"}],"anonymous":false},{"type":"event","name":"UnstakeCompleted","inputs":[{"name":"node","type":"address","indexed":true,"internalType":"address"},{"name":"amount","type":"uint256","indexed":false,"internalType":"uint256"}],"anonymous":false},{"type":"event","name":"UnstakeInitiated","inputs":[{"name":"node","type":"address","indexed":true,"internalType":"address"},{"name":"amount","type":"uint256","indexed":false,"internalType":"uint256"},{"name":"availableAt","type":"uint256","indexed":false,"internalType":"uint256"}],"anonymous":false},{"type":"error","name":"OwnableInvalidOwner","inputs":[{"name":"owner","type":"address","internalType":"address"}]},{"type":"error","name":"OwnableUnauthorizedAccount","inputs":[{"name":"account","type":"address","internalType":"address"}]},{"type":"error","name":"ReentrancyGuardReentrantCall","inputs":[]},{"type":"error","name":"SafeERC20FailedOperation","inputs":[{"name":"token","type":"address","internalType":"address"}]}],"bytecode":{"object":"0x60a060405234801561000f575f5ffd5b5060405161122938038061122983398101604081905261002e9161013d565b806001600160a01b03811661005d57604051631e4fbdf760e01b81525f60048201526024015b60405180910390fd5b610066816100d3565b50600180556001600160a01b0382166100c15760405162461bcd60e51b815260206004820152601f60248201527f426c696e64666572656e63655374616b696e673a207a65726f20746f6b656e006044820152606401610054565b506001600160a01b031660805261016e565b5f80546001600160a01b038381166001600160a01b0319831681178455604051919092169283917f8be0079c531659141344cd1fd0a4f28419497f9722a3daafe3b4186f6b6457e09190a35050565b80516001600160a01b0381168114610138575f5ffd5b919050565b5f5f6040838503121561014e575f5ffd5b61015783610122565b915061016560208401610122565b90509250929050565b60805161108e61019b5f395f81816101b3015281816104d1015281816108740152610b7e015261108e5ff3fe608060405234801561000f575f5ffd5b5060043610610127575f3560e01c8063715018a6116100a9578063c34531531161006e578063c3453153146102c5578063cb1c2b5c1461031b578063d9a912ec1461032b578063f2fde38b14610335578063ff8fbab714610348575f5ffd5b8063715018a61461027e578063817b1cd2146102865780638da5cb5b1461028f5780639f8a13d71461029f578063a694fc3a146102b2575f5ffd5b806352348080116100ef57806352348080146102085780636375184a1461021b57806363803b2314610231578063678b3ee2146102395780636e15bdd91461024c575f5ffd5b8063168285731461012b57806316934fc4146101405780632b9d74b6146101ae5780632caafd3e146101ed57806333080a1214610200575b5f5ffd5b61013e610139366004610eb3565b61035b565b005b61017f61014e366004610eb3565b600260208190525f918252604090912080546001820154928201546003830154600490930154919392909160ff1685565b6040805195865260208601949094529284019190915260608301521515608082015260a0015b60405180910390f35b6101d57f000000000000000000000000000000000000000000000000000000000000000081565b6040516001600160a01b0390911681526020016101a5565b61013e6101fb366004610eb3565b6103fe565b61013e6105b4565b61013e610216366004610ecc565b61071f565b610223600381565b6040519081526020016101a5565b61013e61077e565b61013e610247366004610f05565b6108cd565b61026e61025a366004610eb3565b60036020525f908152604090205460ff1681565b60405190151581526020016101a5565b61013e610a54565b61022360045481565b5f546001600160a01b03166101d5565b61026e6102ad366004610eb3565b610a65565b61013e6102c0366004610f88565b610ab5565b6102d86102d3366004610eb3565b610bf3565b6040516101a591905f60a0820190508251825260208301516020830152604083015160408301526060830151606083015260808301511515608083015292915050565b610223683635c9adc5dea0000081565b6102236205460081565b61013e610343366004610eb3565b610c7b565b61026e610356366004610eb3565b610cb5565b335f9081526003602052604090205460ff168061038157505f546001600160a01b031633145b6103a65760405162461bcd60e51b815260040161039d90610f9f565b60405180910390fd5b6001600160a01b0381165f81815260026020908152604080832060038101849055905192835292917f4cd0632fbba922030df9aecc364cd44fcd4503591ce414dd3bab7b1c8d79ce1191015b60405180910390a25050565b335f9081526003602052604090205460ff168061042457505f546001600160a01b031633145b6104405760405162461bcd60e51b815260040161039d90610f9f565b6001600160a01b0381165f9081526002602052604081208054909103610464575050565b6001816003015f8282546104789190610ffd565b9091555050600381810154106105725780545f8083556004808401805460ff191690556003840182905580548392906104b2908490611010565b90915550505f546104f8906001600160a01b03165b6001600160a01b037f0000000000000000000000000000000000000000000000000000000000000000169083610cea565b826001600160a01b03167f7e947095ed288d8885423bdaef4015b7420ffa9b84d62ef67c402e8bc36a8ea9826040516105689181526040602082018190526018908201527f6d61785f636f6e73656375746976655f6661696c757265730000000000000000606082015260800190565b60405180910390a2505b816001600160a01b03167f4cd0632fbba922030df9aecc364cd44fcd4503591ce414dd3bab7b1c8d79ce1182600301546040516103f291815260200190565b50565b335f9081526002602052604090205461060f5760405162461bcd60e51b815260206004820152601d60248201527f426c696e64666572656e63655374616b696e673a206e6f207374616b65000000604482015260640161039d565b610617610d4e565b335f90815260026020526040902060018101541561068a5760405162461bcd60e51b815260206004820152602a60248201527f426c696e64666572656e63655374616b696e673a20756e626f6e64696e6720696044820152696e2070726f677265737360b01b606482015260840161039d565b80545f8255600182018190556106a36205460042610ffd565b60028301556004808301805460ff1916905580548291905f906106c7908490611010565b9091555050600282015460405133917f9cee5eacd317086e5050733a5dad16ef5aaec185de792371a9625bfee2a3213b9161070a91858252602082015260400190565b60405180910390a2505061071d60018055565b565b610727610d78565b6001600160a01b0382165f81815260036020908152604091829020805460ff191685151590811790915591519182527fffd5334d9f2bb272aaebfc6c24a6d997a83e846355b47e58d36e882916a6e62891016103f2565b610786610d4e565b335f90815260026020526040902060018101546107ef5760405162461bcd60e51b815260206004820152602160248201527f426c696e64666572656e63655374616b696e673a206e6f20756e626f6e64696e6044820152606760f81b606482015260840161039d565b80600201544210156108545760405162461bcd60e51b815260206004820152602860248201527f426c696e64666572656e63655374616b696e673a20756e626f6e64696e67206e6044820152676f7420726561647960c01b606482015260840161039d565b6001810180545f91829055600283019190915561089b6001600160a01b037f0000000000000000000000000000000000000000000000000000000000000000163383610cea565b60405181815233907fdf2b996992aeaae3212b8d32b9c3c224196146804bed6814ec28d864b4eb3fc59060200161070a565b335f9081526003602052604090205460ff16806108f357505f546001600160a01b031633145b61090f5760405162461bcd60e51b815260040161039d90610f9f565b610917610d4e565b6001600160a01b0384165f908152600260205260409020805461098b5760405162461bcd60e51b815260206004820152602660248201527f426c696e64666572656e63655374616b696e673a206e6f646520686173206e6f604482015265207374616b6560d01b606482015260840161039d565b80545f90851161099b578461099e565b81545b905080825f015f8282546109b29190611010565b90915550505f60038301819055825490036109d45760048201805460ff191690555b8060045f8282546109e59190611010565b90915550505f546109fe906001600160a01b03166104c7565b856001600160a01b03167f7e947095ed288d8885423bdaef4015b7420ffa9b84d62ef67c402e8bc36a8ea9828686604051610a3b93929190611023565b60405180910390a25050610a4e60018055565b50505050565b610a5c610d78565b61071d5f610da4565b6001600160a01b0381165f9081526002602052604081206004015460ff168015610aaf57506001600160a01b0382165f90815260026020526040902054683635c9adc5dea0000011155b92915050565b610abd610d4e565b683635c9adc5dea00000811015610b225760405162461bcd60e51b8152602060048201526024808201527f426c696e64666572656e63655374616b696e673a2062656c6f77206d696e207360448201526374616b6560e01b606482015260840161039d565b335f908152600260205260408120805490918391839190610b44908490610ffd565b90915550506004808201805460ff1916600117905580548391905f90610b6b908490610ffd565b90915550610ba690506001600160a01b037f000000000000000000000000000000000000000000000000000000000000000016333085610df3565b805460405133917f1449c6dd7851abc30abf37f57715f492010519147cc2652fbc38202c18a6ee9091610be191868252602082015260400190565b60405180910390a2506105b160018055565b610c226040518060a001604052805f81526020015f81526020015f81526020015f81526020015f151581525090565b506001600160a01b03165f90815260026020818152604092839020835160a081018552815481526001820154928101929092529182015492810192909252600381015460608301526004015460ff161515608082015290565b610c83610d78565b6001600160a01b038116610cac57604051631e4fbdf760e01b81525f600482015260240161039d565b6105b181610da4565b6001600160a01b0381165f908152600260205260408120600181015415801590610ce3575080600201544210155b9392505050565b6040516001600160a01b03838116602483015260448201839052610d4991859182169063a9059cbb906064015b604051602081830303815290604052915060e01b6020820180516001600160e01b038381831617835250505050610e2c565b505050565b600260015403610d7157604051633ee5aeb560e01b815260040160405180910390fd5b6002600155565b5f546001600160a01b0316331461071d5760405163118cdaa760e01b815233600482015260240161039d565b5f80546001600160a01b038381166001600160a01b0319831681178455604051919092169283917f8be0079c531659141344cd1fd0a4f28419497f9722a3daafe3b4186f6b6457e09190a35050565b6040516001600160a01b038481166024830152838116604483015260648201839052610a4e9186918216906323b872dd90608401610d17565b5f5f60205f8451602086015f885af180610e4b576040513d5f823e3d81fd5b50505f513d91508115610e62578060011415610e6f565b6001600160a01b0384163b155b15610a4e57604051635274afe760e01b81526001600160a01b038516600482015260240161039d565b80356001600160a01b0381168114610eae575f5ffd5b919050565b5f60208284031215610ec3575f5ffd5b610ce382610e98565b5f5f60408385031215610edd575f5ffd5b610ee683610e98565b915060208301358015158114610efa575f5ffd5b809150509250929050565b5f5f5f5f60608587031215610f18575f5ffd5b610f2185610e98565b935060208501359250604085013567ffffffffffffffff811115610f43575f5ffd5b8501601f81018713610f53575f5ffd5b803567ffffffffffffffff811115610f69575f5ffd5b876020828401011115610f7a575f5ffd5b949793965060200194505050565b5f60208284031215610f98575f5ffd5b5035919050565b6020808252602a908201527f426c696e64666572656e63655374616b696e673a2063616c6c6572206973206e60408201526937ba1039b630b9b432b960b11b606082015260800190565b634e487b7160e01b5f52601160045260245ffd5b80820180821115610aaf57610aaf610fe9565b81810381811115610aaf57610aaf610fe9565b83815260406020820152816040820152818360608301375f818301606090810191909152601f909201601f191601019291505056fea26469706673582212204e3df24a056cb59de4e1e8ccb4c36fd339f64d2bcc92727425d36e0abbdaec8664736f6c634300081c0033","linkReferences":{}},"methodIdentifiers":{"MAX_CONSECUTIVE_FAILURES()":"6375184a","MIN_STAKE()":"cb1c2b5c","UNBONDING_PERIOD()":"d9a912ec","authorizedSlasher(address)":"6e15bdd9","blindToken()":"2b9d74b6","canCompleteUnstake(address)":"ff8fbab7","completeUnstake()":"63803b23","getStakeInfo(address)":"c3453153","initiateUnstake()":"33080a12","isActive(address)":"9f8a13d7","owner()":"8da5cb5b","recordFailure(address)":"2caafd3e","renounceOwnership()":"715018a6","resetFailures(address)":"16828573","setSlasher(address,bool)":"52348080","slash(address,uint256,string)":"678b3ee2","stake(uint256)":"a694fc3a","stakes(address)":"16934fc4","totalStaked()":"817b1cd2","transferOwnership(address)":"f2fde38b"},"storageLayout":{"storage":[{"astId":631,"contract":"contracts/staking/BlindferenceStaking.sol:BlindferenceStaking","label":"_owner","offset":0,"slot":"0","type":"t_address"},{"astId":1388,"contract":"contracts/staking/BlindferenceStaking.sol:BlindferenceStaking","label":"_status","offset":0,"slot":"1","type":"t_uint256"},{"astId":92,"contract":"contracts/staking/BlindferenceStaking.sol:BlindferenceStaking","label":"stakes","offset":0,"slot":"2","type":"t_mapping(t_address,t_struct(StakeInfo)84_storage)"},{"astId":96,"contract":"contracts/staking/BlindferenceStaking.sol:BlindferenceStaking","label":"authorizedSlasher","offset":0,"slot":"3","type":"t_mapping(t_address,t_bool)"},{"astId":98,"contract":"contracts/staking/BlindferenceStaking.sol:BlindferenceStaking","label":"totalStaked","offset":0,"slot":"4","type":"t_uint256"}],"types":{"t_address":{"encoding":"inplace","label":"address","numberOfBytes":"20"},"t_bool":{"encoding":"inplace","label":"bool","numberOfBytes":"1"},"t_mapping(t_address,t_bool)":{"encoding":"mapping","key":"t_address","label":"mapping(address => bool)","numberOfBytes":"32","value":"t_bool"},"t_mapping(t_address,t_struct(StakeInfo)84_storage)":{"encoding":"mapping","key":"t_address","label":"mapping(address => struct BlindferenceStaking.StakeInfo)","numberOfBytes":"32","value":"t_struct(StakeInfo)84_storage"},"t_struct(StakeInfo)84_storage":{"encoding":"inplace","label":"struct BlindferenceStaking.StakeInfo","numberOfBytes":"160","members":[{"astId":75,"contract":"contracts/staking/BlindferenceStaking.sol:BlindferenceStaking","label":"staked","offset":0,"slot":"0","type":"t_uint256"},{"astId":77,"contract":"contracts/staking/BlindferenceStaking.sol:BlindferenceStaking","label":"unbonding","offset":0,"slot":"1","type":"t_uint256"},{"astId":79,"contract":"contracts/staking/BlindferenceStaking.sol:BlindferenceStaking","label":"unbondingAvailableAt","offset":0,"slot":"2","type":"t_uint256"},{"astId":81,"contract":"contracts/staking/BlindferenceStaking.sol:BlindferenceStaking","label":"consecutiveFailures","offset":0,"slot":"3","type":"t_uint256"},{"astId":83,"contract":"contracts/staking/BlindferenceStaking.sol:BlindferenceStaking","label":"active","offset":0,"slot":"4","type":"t_bool"}]},"t_uint256":{"encoding":"inplace","label":"uint256","numberOfBytes":"32"}}},"id":0}