{"abi":[{"type":"constructor","inputs":[{"name":"_resultRegistry","type":"address","internalType":"address"}],"stateMutability":"nonpayable"},{"type":"function","name":"escrowToJob","inputs":[{"name":"escrowId","type":"uint256","internalType":"uint256"}],"outputs":[{"name":"jobId","type":"bytes32","internalType":"bytes32"}],"stateMutability":"view"},{"type":"function","name":"isConditionMet","inputs":[{"name":"escrowId","type":"uint256","internalType":"uint256"}],"outputs":[{"name":"","type":"bool","internalType":"bool"}],"stateMutability":"view"},{"type":"function","name":"onConditionSet","inputs":[{"name":"escrowId","type":"uint256","internalType":"uint256"},{"name":"data","type":"bytes","internalType":"bytes"}],"outputs":[],"stateMutability":"nonpayable"},{"type":"function","name":"resultRegistry","inputs":[],"outputs":[{"name":"","type":"address","internalType":"contract IResultRegistry"}],"stateMutability":"view"},{"type":"event","name":"ConditionSet","inputs":[{"name":"escrowId","type":"uint256","indexed":true,"internalType":"uint256"},{"name":"jobId","type":"bytes32","indexed":true,"internalType":"bytes32"}],"anonymous":false}],"bytecode":{"object":"0x6080604052348015600e575f5ffd5b50604051610401380380610401833981016040819052602b9160a7565b6001600160a01b03811660845760405162461bcd60e51b815260206004820152601660248201527f496e76616c696420526573756c74526567697374727900000000000000000000604482015260640160405180910390fd5b5f80546001600160a01b0319166001600160a01b039290921691909117905560d2565b5f6020828403121560b6575f5ffd5b81516001600160a01b038116811460cb575f5ffd5b9392505050565b610322806100df5f395ff3fe608060405234801561000f575f5ffd5b506004361061004a575f3560e01c80635a919f5a1461004e578063bb482b3214610080578063cf29558c14610095578063d0f6d5a9146100b8575b5f5ffd5b61006d61005c36600461023f565b60016020525f908152604090205481565b6040519081526020015b60405180910390f35b61009361008e366004610256565b6100e2565b005b6100a86100a336600461023f565b610174565b6040519015158152602001610077565b5f546100ca906001600160a01b031681565b6040516001600160a01b039091168152602001610077565b5f6100ef8284018461023f565b9050806101345760405162461bcd60e51b815260206004820152600e60248201526d125b9d985b1a59081a9bd888125160921b60448201526064015b60405180910390fd5b5f8481526001602052604080822083905551829186917f58a588b92b35b25e2964af799bf366f65008739e65ed5d474c2d4ab7a7faab649190a350505050565b5f81815260016020526040812054806101c05760405162461bcd60e51b815260206004820152600e60248201526d556e6b6e6f776e20657363726f7760901b604482015260640161012b565b5f54604051630837e65360e21b81526004810183905260466024820152600260448201526001600160a01b03909116906320df994c90606401602060405180830381865afa158015610214573d5f5f3e3d5ffd5b505050506040513d601f19601f8201168201806040525081019061023891906102cd565b9392505050565b5f6020828403121561024f575f5ffd5b5035919050565b5f5f5f60408486031215610268575f5ffd5b83359250602084013567ffffffffffffffff811115610285575f5ffd5b8401601f81018613610295575f5ffd5b803567ffffffffffffffff8111156102ab575f5ffd5b8660208284010111156102bc575f5ffd5b939660209190910195509293505050565b5f602082840312156102dd575f5ffd5b81518015158114610238575f5ffdfea26469706673582212201c9c48d8c215caf63f32855cf05a7ba006cf7303217dad7231181d4897a918af64736f6c634300081c0033","linkReferences":{}},"methodIdentifiers":{"escrowToJob(uint256)":"5a919f5a","isConditionMet(uint256)":"cf29558c","onConditionSet(uint256,bytes)":"bb482b32","resultRegistry()":"d0f6d5a9"},"storageLayout":{"storage":[{"astId":7704,"contract":"contracts/plugins/resolvers/InferenceGate.sol:InferenceGate","label":"resultRegistry","offset":0,"slot":"0","type":"t_contract(IResultRegistry)5835"},{"astId":7708,"contract":"contracts/plugins/resolvers/InferenceGate.sol:InferenceGate","label":"escrowToJob","offset":0,"slot":"1","type":"t_mapping(t_uint256,t_bytes32)"}],"types":{"t_bytes32":{"encoding":"inplace","label":"bytes32","numberOfBytes":"32"},"t_contract(IResultRegistry)5835":{"encoding":"inplace","label":"contract IResultRegistry","numberOfBytes":"20"},"t_mapping(t_uint256,t_bytes32)":{"encoding":"mapping","key":"t_uint256","label":"mapping(uint256 => bytes32)","numberOfBytes":"32","value":"t_bytes32"},"t_uint256":{"encoding":"inplace","label":"uint256","numberOfBytes":"32"}}},"id":38}