{"abi":[{"type":"constructor","inputs":[{"name":"_escrow","type":"address","internalType":"address"},{"name":"_cUSDC","type":"address","internalType":"address"},{"name":"_resultRegistry","type":"address","internalType":"address"},{"name":"_owner","type":"address","internalType":"address"}],"stateMutability":"nonpayable"},{"type":"function","name":"cUSDC","inputs":[],"outputs":[{"name":"","type":"address","internalType":"contract IERC20"}],"stateMutability":"view"},{"type":"function","name":"claim","inputs":[{"name":"escrowId","type":"uint256","internalType":"uint256"},{"name":"jobId","type":"bytes32","internalType":"bytes32"}],"outputs":[],"stateMutability":"nonpayable"},{"type":"function","name":"escrow","inputs":[],"outputs":[{"name":"","type":"address","internalType":"contract IConfidentialEscrow"}],"stateMutability":"view"},{"type":"function","name":"escrowToJob","inputs":[{"name":"","type":"uint256","internalType":"uint256"}],"outputs":[{"name":"","type":"bytes32","internalType":"bytes32"}],"stateMutability":"view"},{"type":"function","name":"leaderShareBps","inputs":[],"outputs":[{"name":"","type":"uint256","internalType":"uint256"}],"stateMutability":"view"},{"type":"function","name":"owner","inputs":[],"outputs":[{"name":"","type":"address","internalType":"address"}],"stateMutability":"view"},{"type":"function","name":"recoverToken","inputs":[{"name":"token","type":"address","internalType":"address"},{"name":"to","type":"address","internalType":"address"}],"outputs":[],"stateMutability":"nonpayable"},{"type":"function","name":"renounceOwnership","inputs":[],"outputs":[],"stateMutability":"nonpayable"},{"type":"function","name":"resultRegistry","inputs":[],"outputs":[{"name":"","type":"address","internalType":"contract IResultRegistry"}],"stateMutability":"view"},{"type":"function","name":"setSplit","inputs":[{"name":"_leaderBps","type":"uint256","internalType":"uint256"},{"name":"_verifierBps","type":"uint256","internalType":"uint256"}],"outputs":[],"stateMutability":"nonpayable"},{"type":"function","name":"transferOwnership","inputs":[{"name":"newOwner","type":"address","internalType":"address"}],"outputs":[],"stateMutability":"nonpayable"},{"type":"function","name":"verifierShareBps","inputs":[],"outputs":[{"name":"","type":"uint256","internalType":"uint256"}],"stateMutability":"view"},{"type":"event","name":"Claimed","inputs":[{"name":"escrowId","type":"uint256","indexed":true,"internalType":"uint256"},{"name":"jobId","type":"bytes32","indexed":true,"internalType":"bytes32"},{"name":"leader","type":"address","indexed":false,"internalType":"address"},{"name":"verifiers","type":"address[]","indexed":false,"internalType":"address[]"},{"name":"amount","type":"uint256","indexed":false,"internalType":"uint256"},{"name":"leaderAmount","type":"uint256","indexed":false,"internalType":"uint256"},{"name":"verifierAmount","type":"uint256","indexed":false,"internalType":"uint256"}],"anonymous":false},{"type":"event","name":"OwnershipTransferred","inputs":[{"name":"previousOwner","type":"address","indexed":true,"internalType":"address"},{"name":"newOwner","type":"address","indexed":true,"internalType":"address"}],"anonymous":false},{"type":"error","name":"OwnableInvalidOwner","inputs":[{"name":"owner","type":"address","internalType":"address"}]},{"type":"error","name":"OwnableUnauthorizedAccount","inputs":[{"name":"account","type":"address","internalType":"address"}]}],"bytecode":{"object":"0x60e06040526117706001556107d060025534801561001b575f5ffd5b5060405161101f38038061101f83398101604081905261003a916101de565b806001600160a01b03811661006957604051631e4fbdf760e01b81525f60048201526024015b60405180910390fd5b61007281610174565b506001600160a01b0384166100ba5760405162461bcd60e51b815260206004820152600e60248201526d496e76616c696420657363726f7760901b6044820152606401610060565b6001600160a01b0383166101005760405162461bcd60e51b815260206004820152600d60248201526c496e76616c696420635553444360981b6044820152606401610060565b6001600160a01b0382166101565760405162461bcd60e51b815260206004820152601660248201527f496e76616c696420526573756c745265676973747279000000000000000000006044820152606401610060565b506001600160a01b0392831660805290821660a0521660c05261022f565b5f80546001600160a01b038381166001600160a01b0319831681178455604051919092169283917f8be0079c531659141344cd1fd0a4f28419497f9722a3daafe3b4186f6b6457e09190a35050565b80516001600160a01b03811681146101d9575f5ffd5b919050565b5f5f5f5f608085870312156101f1575f5ffd5b6101fa856101c3565b9350610208602086016101c3565b9250610216604086016101c3565b9150610224606086016101c3565b905092959194509250565b60805160a05160c051610d9c6102835f395f8181610179015261035501525f8181610152015281816103eb0152818161052f015281816105b401526107a101525f81816101a001526102df0152610d9c5ff3fe608060405234801561000f575f5ffd5b50600436106100b1575f3560e01c8063c95f782c1161006e578063c95f782c1461013a578063ce347a3e1461014d578063d0f6d5a914610174578063e2fdcc171461019b578063f2fde38b146101c2578063feaea586146101d5575f5ffd5b80631e140d48146100b557806331d14457146100d15780635a919f5a146100e6578063715018a6146101055780638da5cb5b1461010d578063a576ccdc14610131575b5f5ffd5b6100be60025481565b6040519081526020015b60405180910390f35b6100e46100df366004610973565b6101e8565b005b6100be6100f4366004610993565b60036020525f908152604090205481565b6100e46106cf565b5f546001600160a01b03165b6040516001600160a01b0390911681526020016100c8565b6100be60015481565b6100e4610148366004610973565b6106e2565b6101197f000000000000000000000000000000000000000000000000000000000000000081565b6101197f000000000000000000000000000000000000000000000000000000000000000081565b6101197f000000000000000000000000000000000000000000000000000000000000000081565b6100e46101d03660046109be565b61075a565b6100e46101e33660046109e0565b610797565b5f821161022f5760405162461bcd60e51b815260206004820152601060248201526f125b9d985b1a5908195cd8dc9bddd25960821b60448201526064015b60405180910390fd5b8061026c5760405162461bcd60e51b815260206004820152600d60248201526c125b9d985b1a59081a9bd89259609a1b6044820152606401610226565b5f82815260036020526040902054156102b95760405162461bcd60e51b815260206004820152600f60248201526e105b1c9958591e4818db185a5b5959608a1b6044820152606401610226565b5f82815260036020526040908190208290555163db006a7560e01b8152600481018390527f00000000000000000000000000000000000000000000000000000000000000006001600160a01b03169063db006a75906024015f604051808303815f87803b158015610328575f5ffd5b505af115801561033a573d5f5f3e3d5ffd5b5050604051632b7531e160e21b8152600481018490525f92507f00000000000000000000000000000000000000000000000000000000000000006001600160a01b0316915063add4c784906024015f60405180830381865afa1580156103a2573d5f5f3e3d5ffd5b505050506040513d5f823e601f3d908101601f191682016040526103c99190810190610b2f565b6040516370a0823160e01b81523060048201529091505f906001600160a01b037f000000000000000000000000000000000000000000000000000000000000000016906370a0823190602401602060405180830381865afa158015610430573d5f5f3e3d5ffd5b505050506040513d601f19601f820116820180604052508101906104549190610c34565b90505f811161049a5760405162461bcd60e51b8152602060048201526012602482015271139bc81c185e5bdd5d081c9958d95a5d995960721b6044820152606401610226565b5f612710600154836104ac9190610c5f565b6104b69190610c7c565b90505f6104c38284610c9b565b6060850151519091505f816104d8575f6104e2565b6104e28284610c7c565b90505f841180156104ff575060408601516001600160a01b031615155b1561059d57604086810151905163a9059cbb60e01b81526001600160a01b039182166004820152602481018690527f00000000000000000000000000000000000000000000000000000000000000009091169063a9059cbb906044016020604051808303815f875af1158015610577573d5f5f3e3d5ffd5b505050506040513d601f19601f8201168201806040525081019061059b9190610cae565b505b5f5b86606001515181101561067b578115610673577f00000000000000000000000000000000000000000000000000000000000000006001600160a01b031663a9059cbb886060015183815181106105f7576105f7610ccd565b6020026020010151846040518363ffffffff1660e01b81526004016106319291906001600160a01b03929092168252602082015260400190565b6020604051808303815f875af115801561064d573d5f5f3e3d5ffd5b505050506040513d601f19601f820116820180604052508101906106719190610cae565b505b60010161059f565b5086887f2d4204b38c5adcb06135ab838a2b5621b0bbc4c6a2ffe6a8fd7d07c6a660ba20886040015189606001518989876040516106bd959493929190610ce1565b60405180910390a35050505050505050565b6106d76108f8565b6106e05f610924565b565b6106ea6108f8565b6106f5816002610c5f565b6106ff9083610d53565b6127101461074f5760405162461bcd60e51b815260206004820152601b60248201527f53706c697473206d75737420746f74616c2031303030302062707300000000006044820152606401610226565b600191909155600255565b6107626108f8565b6001600160a01b03811661078b57604051631e4fbdf760e01b81525f6004820152602401610226565b61079481610924565b50565b61079f6108f8565b7f00000000000000000000000000000000000000000000000000000000000000006001600160a01b0316826001600160a01b0316036108175760405162461bcd60e51b815260206004820152601460248201527343616e6e6f74207265636f76657220635553444360601b6044820152606401610226565b6040516370a0823160e01b81523060048201526001600160a01b0383169063a9059cbb90839083906370a0823190602401602060405180830381865afa158015610863573d5f5f3e3d5ffd5b505050506040513d601f19601f820116820180604052508101906108879190610c34565b6040516001600160e01b031960e085901b1681526001600160a01b03909216600483015260248201526044016020604051808303815f875af11580156108cf573d5f5f3e3d5ffd5b505050506040513d601f19601f820116820180604052508101906108f39190610cae565b505050565b5f546001600160a01b031633146106e05760405163118cdaa760e01b8152336004820152602401610226565b5f80546001600160a01b038381166001600160a01b0319831681178455604051919092169283917f8be0079c531659141344cd1fd0a4f28419497f9722a3daafe3b4186f6b6457e09190a35050565b5f5f60408385031215610984575f5ffd5b50508035926020909101359150565b5f602082840312156109a3575f5ffd5b5035919050565b6001600160a01b0381168114610794575f5ffd5b5f602082840312156109ce575f5ffd5b81356109d9816109aa565b9392505050565b5f5f604083850312156109f1575f5ffd5b82356109fc816109aa565b91506020830135610a0c816109aa565b809150509250929050565b634e487b7160e01b5f52604160045260245ffd5b604051610180810167ffffffffffffffff81118282101715610a4f57610a4f610a17565b60405290565b604051601f8201601f1916810167ffffffffffffffff81118282101715610a7e57610a7e610a17565b604052919050565b8051610a91816109aa565b919050565b5f82601f830112610aa5575f5ffd5b815167ffffffffffffffff811115610abf57610abf610a17565b8060051b610acf60208201610a55565b91825260208185018101929081019086841115610aea575f5ffd5b6020860192505b83831015610b15578251610b04816109aa565b825260209283019290910190610af1565b9695505050505050565b805160ff81168114610a91575f5ffd5b5f60208284031215610b3f575f5ffd5b815167ffffffffffffffff811115610b55575f5ffd5b82016101808185031215610b67575f5ffd5b610b6f610a2b565b8151815260208083015190820152610b8960408301610a86565b6040820152606082015167ffffffffffffffff811115610ba7575f5ffd5b610bb386828501610a96565b606083015250610bc560808301610b1f565b6080820152610bd660a08301610b1f565b60a0820152610be760c08301610b1f565b60c082015260e082810151908201526101008083015190820152610c0e6101208301610b1f565b610120820152610140828101519082015261016091820151918101919091529392505050565b5f60208284031215610c44575f5ffd5b5051919050565b634e487b7160e01b5f52601160045260245ffd5b8082028115828204841417610c7657610c76610c4b565b92915050565b5f82610c9657634e487b7160e01b5f52601260045260245ffd5b500490565b81810381811115610c7657610c76610c4b565b5f60208284031215610cbe575f5ffd5b815180151581146109d9575f5ffd5b634e487b7160e01b5f52603260045260245ffd5b6001600160a01b038616815260a0602080830182905286519183018290525f919087019060c0840190835b81811015610d335783516001600160a01b0316835260209384019390920191600101610d0c565b505060408401969096525050606081019290925260809091015292915050565b80820180821115610c7657610c76610c4b56fea2646970667358221220a5918482ec356911a54c8e2ff82a8196b3a60e44bc5f812a059d77d692fd563864736f6c634300081c0033","linkReferences":{}},"methodIdentifiers":{"cUSDC()":"ce347a3e","claim(uint256,bytes32)":"31d14457","escrow()":"e2fdcc17","escrowToJob(uint256)":"5a919f5a","leaderShareBps()":"a576ccdc","owner()":"8da5cb5b","recoverToken(address,address)":"feaea586","renounceOwnership()":"715018a6","resultRegistry()":"d0f6d5a9","setSplit(uint256,uint256)":"c95f782c","transferOwnership(address)":"f2fde38b","verifierShareBps()":"1e140d48"},"storageLayout":{"storage":[{"astId":27316,"contract":"contracts/plugins/resolvers/PayoutClaimer.sol:PayoutClaimer","label":"_owner","offset":0,"slot":"0","type":"t_address"},{"astId":7891,"contract":"contracts/plugins/resolvers/PayoutClaimer.sol:PayoutClaimer","label":"leaderShareBps","offset":0,"slot":"1","type":"t_uint256"},{"astId":7895,"contract":"contracts/plugins/resolvers/PayoutClaimer.sol:PayoutClaimer","label":"verifierShareBps","offset":0,"slot":"2","type":"t_uint256"},{"astId":7899,"contract":"contracts/plugins/resolvers/PayoutClaimer.sol:PayoutClaimer","label":"escrowToJob","offset":0,"slot":"3","type":"t_mapping(t_uint256,t_bytes32)"}],"types":{"t_address":{"encoding":"inplace","label":"address","numberOfBytes":"20"},"t_bytes32":{"encoding":"inplace","label":"bytes32","numberOfBytes":"32"},"t_mapping(t_uint256,t_bytes32)":{"encoding":"mapping","key":"t_uint256","label":"mapping(uint256 => bytes32)","numberOfBytes":"32","value":"t_bytes32"},"t_uint256":{"encoding":"inplace","label":"uint256","numberOfBytes":"32"}}},"id":40}