{"abi":[{"type":"function","name":"getEncryptedKey","inputs":[{"name":"jobId","type":"bytes32","internalType":"bytes32"}],"outputs":[{"name":"","type":"uint256","internalType":"euint128"},{"name":"","type":"uint256","internalType":"euint128"}],"stateMutability":"view"},{"type":"function","name":"grantDecryptAccess","inputs":[{"name":"jobId","type":"bytes32","internalType":"bytes32"},{"name":"node","type":"address","internalType":"address"}],"outputs":[],"stateMutability":"nonpayable"},{"type":"function","name":"icl","inputs":[],"outputs":[{"name":"","type":"address","internalType":"address"}],"stateMutability":"view"},{"type":"function","name":"outputKeys","inputs":[{"name":"jobId","type":"bytes32","internalType":"bytes32"}],"outputs":[{"name":"KoH","type":"uint256","internalType":"uint256"},{"name":"KoL","type":"uint256","internalType":"uint256"}],"stateMutability":"view"},{"type":"function","name":"setICL","inputs":[{"name":"_icl","type":"address","internalType":"address"}],"outputs":[],"stateMutability":"nonpayable"},{"type":"function","name":"storeKey","inputs":[{"name":"jobId","type":"bytes32","internalType":"bytes32"},{"name":"encHigh","type":"tuple","internalType":"struct InEuint128","components":[{"name":"ctHash","type":"uint256","internalType":"uint256"},{"name":"securityZone","type":"uint8","internalType":"uint8"},{"name":"utype","type":"uint8","internalType":"uint8"},{"name":"signature","type":"bytes","internalType":"bytes"}]},{"name":"encLow","type":"tuple","internalType":"struct InEuint128","components":[{"name":"ctHash","type":"uint256","internalType":"uint256"},{"name":"securityZone","type":"uint8","internalType":"uint8"},{"name":"utype","type":"uint8","internalType":"uint8"},{"name":"signature","type":"bytes","internalType":"bytes"}]},{"name":"allowedNodes","type":"address[]","internalType":"address[]"}],"outputs":[],"stateMutability":"nonpayable"},{"type":"function","name":"storeOutputKey","inputs":[{"name":"jobId","type":"bytes32","internalType":"bytes32"},{"name":"koHighHandle","type":"uint256","internalType":"uint256"},{"name":"koLowHandle","type":"uint256","internalType":"uint256"},{"name":"userAddress","type":"address","internalType":"address"}],"outputs":[],"stateMutability":"nonpayable"},{"type":"event","name":"DecryptAccessGranted","inputs":[{"name":"jobId","type":"bytes32","indexed":true,"internalType":"bytes32"},{"name":"node","type":"address","indexed":true,"internalType":"address"}],"anonymous":false},{"type":"event","name":"KeyStored","inputs":[{"name":"jobId","type":"bytes32","indexed":true,"internalType":"bytes32"},{"name":"submitter","type":"address","indexed":true,"internalType":"address"},{"name":"highHandle","type":"uint256","indexed":false,"internalType":"uint256"},{"name":"lowHandle","type":"uint256","indexed":false,"internalType":"uint256"},{"name":"allowedNodes","type":"address[]","indexed":false,"internalType":"address[]"}],"anonymous":false},{"type":"event","name":"OutputKeyStored","inputs":[{"name":"jobId","type":"bytes32","indexed":true,"internalType":"bytes32"},{"name":"koHighHandle","type":"uint256","indexed":false,"internalType":"uint256"},{"name":"koLowHandle","type":"uint256","indexed":false,"internalType":"uint256"},{"name":"userAddress","type":"address","indexed":true,"internalType":"address"}],"anonymous":false},{"type":"error","name":"InvalidEncryptedInput","inputs":[{"name":"got","type":"uint8","internalType":"uint8"},{"name":"expected","type":"uint8","internalType":"uint8"}]}],"bytecode":{"object":"0x6080604052348015600e575f5ffd5b50610b048061001c5f395ff3fe608060405234801561000f575f5ffd5b506004361061007a575f3560e01c8063789dd44d11610058578063789dd44d146100fa5780638eb0fb2a1461010d578063d97454ea14610138578063e6e589791461014b575f5ffd5b8063533688bb1461007e5780636bd4cf9f146100bf578063734a569b146100d4575b5f5ffd5b6100a561008c3660046106fd565b5f90815260208190526040902080546001909101549091565b604080519283526020830191909152015b60405180910390f35b6100d26100cd36600461072f565b61015e565b005b6100a56100e23660046106fd565b600160208190525f9182526040909120805491015482565b6100d261010836600461076b565b610233565b600254610120906001600160a01b031681565b6040516001600160a01b0390911681526020016100b6565b6100d2610146366004610795565b61032a565b6100d26101593660046107c4565b610406565b6002546001600160a01b031633146101a85760405162461bcd60e51b815260206004820152600860248201526713db9b1e481250d360c21b60448201526064015b60405180910390fd5b60408051808201825284815260208082018581525f888152600192839052939093209151825591519101556101dd83826104b3565b6101e782826104b3565b60408051848152602081018490526001600160a01b0383169186917fca545d1e1327bc0deafb7e7639c74db71942007af9cf29a8a6092d749a1dff85910160405180910390a350505050565b6002546001600160a01b031633146102785760405162461bcd60e51b815260206004820152600860248201526713db9b1e481250d360c21b604482015260640161019f565b5f82815260208190526040902080541515806102975750600181015415155b6102d65760405162461bcd60e51b815260206004820152601060248201526f129bd8881ad95e5cc81b9bdd081cd95d60821b604482015260640161019f565b80546102e290836104b3565b6102f08160010154836104b3565b6040516001600160a01b0383169084907fe645e0983daebdc6f5e3707eb983f5b938c5369394c949324cb31b340d9e20b4905f90a3505050565b6002546001600160a01b0316158061034c57506002546001600160a01b031633145b6103985760405162461bcd60e51b815260206004820152601c60248201527f49434c20616c726561647920736574206279206e6f6e2d6f776e657200000000604482015260640161019f565b6001600160a01b0381166103e45760405162461bcd60e51b8152602060048201526013602482015272496e76616c69642049434c206164647265737360681b604482015260640161019f565b600280546001600160a01b0319166001600160a01b0392909216919091179055565b5f6104186104138661090e565b610526565b90505f6104276104138661090e565b90506104348285856105c2565b61043f8185856105c2565b60408051808201825283815260208082018481525f8b81529182905290839020915182555160019091015551339088907f76f33e715b6908161adf103169752d67d49e46d8d72767a86553e51a0f75a1a5906104a290869086908a908a906109d7565b60405180910390a350505050505050565b604051631974142760e21b8152600481018390526001600160a01b038216602482015273ea30c4b8b44078bbf8a6ef5b9f1ec1626c7848d9906365d0509c906044015f604051808303815f87803b15801561050c575f5ffd5b505af115801561051e573d5f5f3e3d5ffd5b505050505050565b60408101515f9060069060ff1681146105655760408084015190516367cf307160e01b815260ff9182166004820152908216602482015260440161019f565b60408051608080820183525f808352602080840182905283850191909152606092830183905283519182018452865182528087015160ff169082015260069281019290925280850151908201526105bb90610613565b9392505050565b6105cb83610694565b5f5b8181101561060d57610605848484848181106105eb576105eb610a31565b90506020020160208101906106009190610795565b6104b3565b6001016105cd565b50505050565b6040516313fce3b160e11b81525f9073ea30c4b8b44078bbf8a6ef5b9f1ec1626c7848d9906327f9c7629061064e9085903390600401610a45565b6020604051808303815f875af115801561066a573d5f5f3e3d5ffd5b505050506040513d601f19601f8201168201806040525081019061068e9190610ab7565b92915050565b604051631974142760e21b81526004810182905230602482015273ea30c4b8b44078bbf8a6ef5b9f1ec1626c7848d9906365d0509c906044015f604051808303815f87803b1580156106e4575f5ffd5b505af11580156106f6573d5f5f3e3d5ffd5b5050505050565b5f6020828403121561070d575f5ffd5b5035919050565b80356001600160a01b038116811461072a575f5ffd5b919050565b5f5f5f5f60808587031215610742575f5ffd5b84359350602085013592506040850135915061076060608601610714565b905092959194509250565b5f5f6040838503121561077c575f5ffd5b8235915061078c60208401610714565b90509250929050565b5f602082840312156107a5575f5ffd5b6105bb82610714565b5f608082840312156107be575f5ffd5b50919050565b5f5f5f5f5f608086880312156107d8575f5ffd5b85359450602086013567ffffffffffffffff8111156107f5575f5ffd5b610801888289016107ae565b945050604086013567ffffffffffffffff81111561081d575f5ffd5b610829888289016107ae565b935050606086013567ffffffffffffffff811115610845575f5ffd5b8601601f81018813610855575f5ffd5b803567ffffffffffffffff81111561086b575f5ffd5b8860208260051b840101111561087f575f5ffd5b959894975092955050506020019190565b634e487b7160e01b5f52604160045260245ffd5b6040516080810167ffffffffffffffff811182821017156108c7576108c7610890565b60405290565b604051601f8201601f1916810167ffffffffffffffff811182821017156108f6576108f6610890565b604052919050565b803560ff8116811461072a575f5ffd5b5f6080823603121561091e575f5ffd5b6109266108a4565b82358152610936602084016108fe565b6020820152610947604084016108fe565b6040820152606083013567ffffffffffffffff811115610965575f5ffd5b830136601f820112610975575f5ffd5b803567ffffffffffffffff81111561098f5761098f610890565b6109a2601f8201601f19166020016108cd565b8181523660208385010111156109b6575f5ffd5b816020840160208301375f9181016020019190915260608301525092915050565b8481526020810184905260606040820181905281018290525f8360808301825b85811015610a25576001600160a01b03610a1084610714565b168252602092830192909101906001016109f7565b50979650505050505050565b634e487b7160e01b5f52603260045260245ffd5b604081528251604082015260ff602084015116606082015260ff60408401511660808201525f6060840151608060a084015280518060c0850152806020830160e086015e5f60e0828601015260e0601f19601f830116850101925050506105bb60208301846001600160a01b03169052565b5f60208284031215610ac7575f5ffd5b505191905056fea264697066735822122015f25a8ea740d103d38d34fbaafb1bcfc6e7aed947d254a3dad224e1046cc35f64736f6c634300081c0033","linkReferences":{}},"methodIdentifiers":{"getEncryptedKey(bytes32)":"533688bb","grantDecryptAccess(bytes32,address)":"789dd44d","icl()":"8eb0fb2a","outputKeys(bytes32)":"734a569b","setICL(address)":"d97454ea","storeKey(bytes32,(uint256,uint8,uint8,bytes),(uint256,uint8,uint8,bytes),address[])":"e6e58979","storeOutputKey(bytes32,uint256,uint256,address)":"6bd4cf9f"},"storageLayout":{"storage":[{"astId":4134,"contract":"contracts/core/PromptKeyStore.sol:PromptKeyStore","label":"_jobKeys","offset":0,"slot":"0","type":"t_mapping(t_bytes32,t_struct(StoredKey)4124_storage)"},{"astId":4139,"contract":"contracts/core/PromptKeyStore.sol:PromptKeyStore","label":"outputKeys","offset":0,"slot":"1","type":"t_mapping(t_bytes32,t_struct(OutputKey)4129_storage)"},{"astId":4141,"contract":"contracts/core/PromptKeyStore.sol:PromptKeyStore","label":"icl","offset":0,"slot":"2","type":"t_address"}],"types":{"t_address":{"encoding":"inplace","label":"address","numberOfBytes":"20"},"t_bytes32":{"encoding":"inplace","label":"bytes32","numberOfBytes":"32"},"t_mapping(t_bytes32,t_struct(OutputKey)4129_storage)":{"encoding":"mapping","key":"t_bytes32","label":"mapping(bytes32 => struct PromptKeyStore.OutputKey)","numberOfBytes":"32","value":"t_struct(OutputKey)4129_storage"},"t_mapping(t_bytes32,t_struct(StoredKey)4124_storage)":{"encoding":"mapping","key":"t_bytes32","label":"mapping(bytes32 => struct PromptKeyStore.StoredKey)","numberOfBytes":"32","value":"t_struct(StoredKey)4124_storage"},"t_struct(OutputKey)4129_storage":{"encoding":"inplace","label":"struct PromptKeyStore.OutputKey","numberOfBytes":"64","members":[{"astId":4126,"contract":"contracts/core/PromptKeyStore.sol:PromptKeyStore","label":"KoH","offset":0,"slot":"0","type":"t_uint256"},{"astId":4128,"contract":"contracts/core/PromptKeyStore.sol:PromptKeyStore","label":"KoL","offset":0,"slot":"1","type":"t_uint256"}]},"t_struct(StoredKey)4124_storage":{"encoding":"inplace","label":"struct PromptKeyStore.StoredKey","numberOfBytes":"64","members":[{"astId":4120,"contract":"contracts/core/PromptKeyStore.sol:PromptKeyStore","label":"high","offset":0,"slot":"0","type":"t_userDefinedValueType(euint128)8563"},{"astId":4123,"contract":"contracts/core/PromptKeyStore.sol:PromptKeyStore","label":"low","offset":0,"slot":"1","type":"t_userDefinedValueType(euint128)8563"}]},"t_uint256":{"encoding":"inplace","label":"uint256","numberOfBytes":"32"},"t_userDefinedValueType(euint128)8563":{"encoding":"inplace","label":"euint128","numberOfBytes":"32"}}},"id":10}